{"abi":[{"type":"constructor","inputs":[{"name":"_manager","type":"address","internalType":"contract IPoolManager"}],"stateMutability":"nonpayable"},{"type":"function","name":"manager","inputs":[],"outputs":[{"name":"","type":"address","internalType":"contract IPoolManager"}],"stateMutability":"view"},{"type":"function","name":"swap","inputs":[{"name":"key","type":"tuple","internalType":"struct PoolKey","components":[{"name":"currency0","type":"address","internalType":"Currency"},{"name":"currency1","type":"address","internalType":"Currency"},{"name":"fee","type":"uint24","internalType":"uint24"},{"name":"tickSpacing","type":"int24","internalType":"int24"},{"name":"hooks","type":"address","internalType":"contract IHooks"}]},{"name":"params","type":"tuple","internalType":"struct IPoolManager.SwapParams","components":[{"name":"zeroForOne","type":"bool","internalType":"bool"},{"name":"amountSpecified","type":"int256","internalType":"int256"},{"name":"sqrtPriceLimitX96","type":"uint160","internalType":"uint160"}]},{"name":"testSettings","type":"tuple","internalType":"struct PoolSwapTest.TestSettings","components":[{"name":"takeClaims","type":"bool","internalType":"bool"},{"name":"settleUsingBurn","type":"bool","internalType":"bool"}]},{"name":"hookData","type":"bytes","internalType":"bytes"}],"outputs":[{"name":"delta","type":"int256","internalType":"BalanceDelta"}],"stateMutability":"payable"},{"type":"function","name":"unlockCallback","inputs":[{"name":"rawData","type":"bytes","internalType":"bytes"}],"outputs":[{"name":"","type":"bytes","internalType":"bytes"}],"stateMutability":"nonpayable"},{"type":"error","name":"NoSwapOccurred","inputs":[]}],"bytecode":{"object":"0x60a0604052348015600e575f80fd5b506040516117dc3803806117dc833981016040819052602b91603b565b6001600160a01b03166080526066565b5f60208284031215604a575f80fd5b81516001600160a01b0381168114605f575f80fd5b9392505050565b6080516117216100bb5f395f8181606e0152818160d7015281816101ee0152818161030001528181610888015281816108e10152818161095e015281816109b201528181610ac70152610afa01526117215ff3fe608060405260043610610033575f3560e01c80632229d0b414610037578063481c6a751461005d57806391dd7346146100a8575b5f80fd5b61004a61004536600461128e565b6100d4565b6040519081526020015b60405180910390f35b348015610068575f80fd5b506100907f000000000000000000000000000000000000000000000000000000000000000081565b6040516001600160a01b039091168152602001610054565b3480156100b3575f80fd5b506100c76100c23660046112ff565b6101e1565b604051610054919061139b565b5f7f00000000000000000000000000000000000000000000000000000000000000006001600160a01b03166348c894916040518060a00160405280336001600160a01b031681526020018681526020018881526020018781526020018581525060405160200161014491906113f7565b6040516020818303038152906040526040518263ffffffff1660e01b815260040161016f919061139b565b5f604051808303815f875af115801561018a573d5f803e3d5ffd5b505050506040513d5f823e601f3d908101601f191682016040526101b19190810190611488565b8060200190518101906101c491906114fd565b90504780156101d8576101d85f3383610a04565b50949350505050565b6060336001600160a01b037f00000000000000000000000000000000000000000000000000000000000000001614610217575f80fd5b5f61022483850185611514565b90505f61023c82604001515f0151835f015130610aa0565b925050505f610257836040015160200151845f015130610aa0565b92505050815f146102af5760405162461bcd60e51b815260206004820152601e60248201527f64656c74614265666f726530206973206e6f7420657175616c20746f2030000060448201526064015b60405180910390fd5b80156102fd5760405162461bcd60e51b815260206004820152601e60248201527f64656c74614265666f726531206973206e6f7420657175616c20746f2030000060448201526064016102a6565b5f7f00000000000000000000000000000000000000000000000000000000000000006001600160a01b031663f3cd914c8560400151866060015187608001516040518463ffffffff1660e01b815260040161035a939291906115cc565b6020604051808303815f875af1158015610376573d5f803e3d5ffd5b505050506040513d601f19601f8201168201806040525081019061039a91906114fd565b90505f6103b285604001515f0151865f015130610aa0565b925050505f6103cd866040015160200151875f015130610aa0565b9250505085606001515f01511561062f575f86606001516020015112156105125785606001516020015182121561047c5760405162461bcd60e51b815260206004820152604760248201527f64656c7461416674657230206973206e6f742067726561746572207468616e2060448201527f6f7220657175616c20746f20646174612e706172616d732e616d6f756e7453706064820152661958da599a595960ca1b608482015260a4016102a6565b816104878460801d90565b600f0b146104a75760405162461bcd60e51b81526004016102a690611614565b5f81121561050d5760405162461bcd60e51b815260206004820152602d60248201527f64656c7461416674657231206973206e6f742067726561746572207468616e2060448201526c06f7220657175616c20746f203609c1b60648201526084016102a6565b610878565b5f8213156105785760405162461bcd60e51b815260206004820152602d60248201527f64656c7461416674657230206973206e6f74206c657373207468616e206f722060448201526c657175616c20746f207a65726f60981b60648201526084016102a6565b8061058384600f0b90565b600f0b146105a35760405162461bcd60e51b81526004016102a69061165f565b85606001516020015181131561050d5760405162461bcd60e51b8152602060048201526044602482018190527f64656c7461416674657231206973206e6f74206c657373207468616e206f7220908201527f657175616c20746f20646174612e706172616d732e616d6f756e745370656369606482015263199a595960e21b608482015260a4016102a6565b5f866060015160200151121561075e578560600151602001518112156106cd5760405162461bcd60e51b815260206004820152604760248201527f64656c7461416674657231206973206e6f742067726561746572207468616e2060448201527f6f7220657175616c20746f20646174612e706172616d732e616d6f756e7453706064820152661958da599a595960ca1b608482015260a4016102a6565b806106d884600f0b90565b600f0b146106f85760405162461bcd60e51b81526004016102a69061165f565b5f82121561050d5760405162461bcd60e51b815260206004820152602d60248201527f64656c7461416674657230206973206e6f742067726561746572207468616e2060448201526c06f7220657175616c20746f203609c1b60648201526084016102a6565b5f8113156107c15760405162461bcd60e51b815260206004820152602a60248201527f64656c7461416674657231206973206e6f74206c657373207468616e206f72206044820152690657175616c20746f20360b41b60648201526084016102a6565b816107cc8460801d90565b600f0b146107ec5760405162461bcd60e51b81526004016102a690611614565b8560600151602001518213156108785760405162461bcd60e51b8152602060048201526044602482018190527f64656c7461416674657230206973206e6f74206c657373207468616e206f7220908201527f657175616c20746f20646174612e706172616d732e616d6f756e745370656369606482015263199a595960e21b608482015260a4016102a6565b5f8212156108d15785516108d1907f0000000000000000000000000000000000000000000000000000000000000000906108b1856116aa565b6020808b0151015160408b0151516001600160a01b031693929190610b2c565b5f811215610936578551610936907f00000000000000000000000000000000000000000000000000000000000000009061090a846116aa565b8960200151602001518a60400151602001516001600160a01b0316610b2c90949392919063ffffffff16565b5f821315610986578551602087015151604088015151610986926001600160a01b03909116917f000000000000000000000000000000000000000000000000000000000000000091908690610df8565b5f8113156109da578551602080880151516040890151909101516109da926001600160a01b03909116917f000000000000000000000000000000000000000000000000000000000000000091908590610df8565b60408051602081018590520160405160208183030381529060405296505050505050505b92915050565b5f6001600160a01b038416610a38575f805f8085875af1905080610a3357610a33638549db5960e01b84610eca565b610a9a565b60405163a9059cbb60e01b81526001600160a01b038416600482015282602482015260205f6044835f895af13d15601f3d1160015f511416171691505f81525f60208201525f60408201525080610a9a57610a9a632c4b17e760e21b85610eca565b50505050565b5f8080610ab66001600160a01b03871686610efd565b9250610aeb6001600160a01b0387167f0000000000000000000000000000000000000000000000000000000000000000610efd565b9150610b216001600160a01b037f0000000000000000000000000000000000000000000000000000000000000000168588610f8c565b905093509350939050565b8015610bc157836001600160a01b031663f5298aca84610b5b886001600160a01b03166001600160a01b031690565b6040516001600160e01b031960e085901b1681526001600160a01b0390921660048301526024820152604481018590526064015b5f604051808303815f87803b158015610ba6575f80fd5b505af1158015610bb8573d5f803e3d5ffd5b50505050610df1565b6001600160a01b038516610c3857836001600160a01b03166311da60b4836040518263ffffffff1660e01b815260040160206040518083038185885af1158015610c0d573d5f803e3d5ffd5b50505050506040513d601f19601f82011682018060405250810190610c3291906114fd565b50610df1565b604051632961046560e21b81526001600160a01b03868116600483015285169063a5841194906024015f604051808303815f87803b158015610c78575f80fd5b505af1158015610c8a573d5f803e3d5ffd5b505050506001600160a01b0383163014610d1c576040516323b872dd60e01b81526001600160a01b0384811660048301528581166024830152604482018490528616906323b872dd906064016020604051808303815f875af1158015610cf2573d5f803e3d5ffd5b505050506040513d601f19601f82011682018060405250810190610d1691906116d0565b50610d8e565b60405163a9059cbb60e01b81526001600160a01b0385811660048301526024820184905286169063a9059cbb906044016020604051808303815f875af1158015610d68573d5f803e3d5ffd5b505050506040513d601f19601f82011682018060405250810190610d8c91906116d0565b505b836001600160a01b03166311da60b46040518163ffffffff1660e01b81526004016020604051808303815f875af1158015610dcb573d5f803e3d5ffd5b505050506040513d601f19601f82011682018060405250810190610def91906114fd565b505b5050505050565b80610e3a57604051630b0d9c0960e01b81526001600160a01b038681166004830152848116602483015260448201849052851690630b0d9c0990606401610b8f565b836001600160a01b031663156e29f684610e63886001600160a01b03166001600160a01b031690565b6040516001600160e01b031960e085901b1681526001600160a01b0390921660048301526024820152604481018590526064015f604051808303815f87803b158015610ead575f80fd5b505af1158015610ebf573d5f803e3d5ffd5b505050505050505050565b3d60405183815282600482015260406024820152816044820152815f606483013e602080601f8401040260640191508181fd5b5f6001600160a01b038316610f1d57506001600160a01b038116316109fe565b6040516370a0823160e01b81526001600160a01b0383811660048301528416906370a0823190602401602060405180830381865afa158015610f61573d5f803e3d5ffd5b505050506040513d601f19601f82011682018060405250810190610f8591906114fd565b90506109fe565b5f806001600160a01b0384165f526001600160a01b03831660205260405f209050846001600160a01b031663f135baaa826040518263ffffffff1660e01b8152600401610fdb91815260200190565b602060405180830381865afa158015610ff6573d5f803e3d5ffd5b505050506040513d601f19601f8201168201806040525081019061101a91906114fd565b95945050505050565b634e487b7160e01b5f52604160045260245ffd5b60405160a0810167ffffffffffffffff8111828210171561105a5761105a611023565b60405290565b604051601f8201601f1916810167ffffffffffffffff8111828210171561108957611089611023565b604052919050565b6001600160a01b03811681146110a5575f80fd5b50565b80356110b381611091565b919050565b5f60a082840312156110c8575f80fd5b6110d0611037565b905081356110dd81611091565b815260208201356110ed81611091565b6020820152604082013562ffffff81168114611107575f80fd5b60408201526060820135600281900b8114611120575f80fd5b6060820152611131608083016110a8565b608082015292915050565b80151581146110a5575f80fd5b5f60608284031215611159575f80fd5b6040516060810167ffffffffffffffff8111828210171561117c5761117c611023565b604052905080823561118d8161113c565b81526020838101359082015260408301356111a781611091565b6040919091015292915050565b5f604082840312156111c4575f80fd5b6040805190810167ffffffffffffffff811182821017156111e7576111e7611023565b60405290508082356111f88161113c565b815260208301356112088161113c565b6020919091015292915050565b5f67ffffffffffffffff82111561122e5761122e611023565b50601f01601f191660200190565b5f82601f83011261124b575f80fd5b813561125e61125982611215565b611060565b818152846020838601011115611272575f80fd5b816020850160208301375f918101602001919091529392505050565b5f805f8061016085870312156112a2575f80fd5b6112ac86866110b8565b93506112bb8660a08701611149565b92506112cb8661010087016111b4565b915061014085013567ffffffffffffffff8111156112e7575f80fd5b6112f38782880161123c565b91505092959194509250565b5f8060208385031215611310575f80fd5b823567ffffffffffffffff811115611326575f80fd5b8301601f81018513611336575f80fd5b803567ffffffffffffffff81111561134c575f80fd5b85602082840101111561135d575f80fd5b6020919091019590945092505050565b5f81518084528060208401602086015e5f602082860101526020601f19601f83011685010191505092915050565b602081525f6113ad602083018461136d565b9392505050565b80516001600160a01b03908116835260208083015182169084015260408083015162ffffff169084015260608083015160020b9084015260809182015116910152565b602080825282516001600160a01b0316828201528281015180511515604080850191909152910151151560608301528201515f9061143860808401826113b4565b506060830151805115156101208401526020810151610140840152604001516001600160a01b03166101608301526080830151610180808401526114806101a084018261136d565b949350505050565b5f60208284031215611498575f80fd5b815167ffffffffffffffff8111156114ae575f80fd5b8201601f810184136114be575f80fd5b80516114cc61125982611215565b8181528560208385010111156114e0575f80fd5b8160208401602083015e5f91810160200191909152949350505050565b5f6020828403121561150d575f80fd5b5051919050565b5f60208284031215611524575f80fd5b813567ffffffffffffffff81111561153a575f80fd5b8201610180818503121561154c575f80fd5b611554611037565b813561155f81611091565b815261156e85602084016111b4565b602082015261158085606084016110b8565b6040820152611593856101008401611149565b606082015261016082013567ffffffffffffffff8111156115b2575f80fd5b6115be8682850161123c565b608083015250949350505050565b6115d681856113b4565b8251151560a0820152602083015160c082015260408301516001600160a01b031660e08201526101206101008201525f61101a61012083018461136d565b6020808252602b908201527f64656c74612e616d6f756e74302829206973206e6f7420657175616c20746f2060408201526a064656c74614166746572360ac1b606082015260800190565b6020808252602b908201527f64656c74612e616d6f756e74312829206973206e6f7420657175616c20746f2060408201526a64656c746141667465723160a81b606082015260800190565b5f600160ff1b82016116ca57634e487b7160e01b5f52601160045260245ffd5b505f0390565b5f602082840312156116e0575f80fd5b81516113ad8161113c56fea2646970667358221220143fa6055f24876ee5b372a0ba070a61cbc08538b7ccf5722eeda1d4a58e70e264736f6c634300081a0033","linkReferences":{}},"methodIdentifiers":{"manager()":"481c6a75","swap((address,address,uint24,int24,address),(bool,int256,uint160),(bool,bool),bytes)":"2229d0b4","unlockCallback(bytes)":"91dd7346"},"id":49}