{"abi":[{"type":"constructor","inputs":[{"name":"owner_xucre","type":"address","internalType":"address"},{"name":"swapRouter_xucre","type":"address","internalType":"address"},{"name":"tokenContract_xucre","type":"address","internalType":"address"},{"name":"_swapRouter","type":"address","internalType":"address"},{"name":"poolFee_xucre","type":"uint24","internalType":"uint24"}],"stateMutability":"nonpayable"},{"type":"fallback","stateMutability":"payable"},{"type":"receive","stateMutability":"payable"},{"type":"function","name":"BATCH_CALL_ROLE","inputs":[],"outputs":[{"name":"","type":"bytes32","internalType":"bytes32"}],"stateMutability":"view"},{"type":"function","name":"DEFAULT_ADMIN_ROLE","inputs":[],"outputs":[{"name":"","type":"bytes32","internalType":"bytes32"}],"stateMutability":"view"},{"type":"function","name":"MAX_PRICE_LIMIT","inputs":[],"outputs":[{"name":"","type":"uint160","internalType":"uint160"}],"stateMutability":"view"},{"type":"function","name":"MIN_PRICE_LIMIT","inputs":[],"outputs":[{"name":"","type":"uint160","internalType":"uint160"}],"stateMutability":"view"},{"type":"function","name":"PAUSER_ROLE","inputs":[],"outputs":[{"name":"","type":"bytes32","internalType":"bytes32"}],"stateMutability":"view"},{"type":"function","name":"calculateFromPercent","inputs":[{"name":"amount_xucre","type":"uint256","internalType":"uint256"},{"name":"bps_xucre","type":"uint256","internalType":"uint256"}],"outputs":[{"name":"","type":"uint256","internalType":"uint256"}],"stateMutability":"pure"},{"type":"function","name":"feeToken","inputs":[],"outputs":[{"name":"","type":"address","internalType":"address"}],"stateMutability":"view"},{"type":"function","name":"getRoleAdmin","inputs":[{"name":"role","type":"bytes32","internalType":"bytes32"}],"outputs":[{"name":"","type":"bytes32","internalType":"bytes32"}],"stateMutability":"view"},{"type":"function","name":"grantRole","inputs":[{"name":"role","type":"bytes32","internalType":"bytes32"},{"name":"account","type":"address","internalType":"address"}],"outputs":[],"stateMutability":"nonpayable"},{"type":"function","name":"hasRole","inputs":[{"name":"role","type":"bytes32","internalType":"bytes32"},{"name":"account","type":"address","internalType":"address"}],"outputs":[{"name":"","type":"bool","internalType":"bool"}],"stateMutability":"view"},{"type":"function","name":"pause","inputs":[],"outputs":[],"stateMutability":"nonpayable"},{"type":"function","name":"paused","inputs":[],"outputs":[{"name":"","type":"bool","internalType":"bool"}],"stateMutability":"view"},{"type":"function","name":"performSwapBatch","inputs":[{"name":"to_xucre","type":"address","internalType":"address"},{"name":"etfDefinition","type":"tuple","internalType":"struct XucreIndexFunds.ETFDefinition","components":[{"name":"targetTokens","type":"address[]","internalType":"address[]"},{"name":"inputAmounts","type":"uint256[]","internalType":"uint256[]"},{"name":"poolFees","type":"uint24[]","internalType":"uint24[]"},{"name":"poolKeys","type":"tuple[]","internalType":"struct PoolKey[]","components":[{"name":"currency0","type":"address","internalType":"Currency"},{"name":"currency1","type":"address","internalType":"Currency"},{"name":"fee","type":"uint24","internalType":"uint24"},{"name":"tickSpacing","type":"int24","internalType":"int24"},{"name":"hooks","type":"address","internalType":"contract IHooks"}]},{"name":"feeKey","type":"tuple","internalType":"struct PoolKey","components":[{"name":"currency0","type":"address","internalType":"Currency"},{"name":"currency1","type":"address","internalType":"Currency"},{"name":"fee","type":"uint24","internalType":"uint24"},{"name":"tickSpacing","type":"int24","internalType":"int24"},{"name":"hooks","type":"address","internalType":"contract IHooks"}]},{"name":"hasFees","type":"bool","internalType":"bool"},{"name":"amount","type":"uint256","internalType":"uint256"},{"name":"sourceToken","type":"address","internalType":"address"}]}],"outputs":[],"stateMutability":"nonpayable"},{"type":"function","name":"poolFee","inputs":[],"outputs":[{"name":"","type":"uint24","internalType":"uint24"}],"stateMutability":"view"},{"type":"function","name":"renounceRole","inputs":[{"name":"role","type":"bytes32","internalType":"bytes32"},{"name":"callerConfirmation","type":"address","internalType":"address"}],"outputs":[],"stateMutability":"nonpayable"},{"type":"function","name":"revokeRole","inputs":[{"name":"role","type":"bytes32","internalType":"bytes32"},{"name":"account","type":"address","internalType":"address"}],"outputs":[],"stateMutability":"nonpayable"},{"type":"function","name":"supportsInterface","inputs":[{"name":"interfaceId","type":"bytes4","internalType":"bytes4"}],"outputs":[{"name":"","type":"bool","internalType":"bool"}],"stateMutability":"view"},{"type":"function","name":"unpause","inputs":[],"outputs":[],"stateMutability":"nonpayable"},{"type":"function","name":"withdrawBalance","inputs":[{"name":"xucre_to","type":"address","internalType":"address"}],"outputs":[],"stateMutability":"nonpayable"},{"type":"function","name":"withdrawTokenBalance","inputs":[{"name":"xucre_to","type":"address","internalType":"address"},{"name":"xucre_tokenAddress","type":"address","internalType":"address"}],"outputs":[],"stateMutability":"nonpayable"},{"type":"event","name":"Paused","inputs":[{"name":"account","type":"address","indexed":false,"internalType":"address"}],"anonymous":false},{"type":"event","name":"RoleAdminChanged","inputs":[{"name":"role","type":"bytes32","indexed":true,"internalType":"bytes32"},{"name":"previousAdminRole","type":"bytes32","indexed":true,"internalType":"bytes32"},{"name":"newAdminRole","type":"bytes32","indexed":true,"internalType":"bytes32"}],"anonymous":false},{"type":"event","name":"RoleGranted","inputs":[{"name":"role","type":"bytes32","indexed":true,"internalType":"bytes32"},{"name":"account","type":"address","indexed":true,"internalType":"address"},{"name":"sender","type":"address","indexed":true,"internalType":"address"}],"anonymous":false},{"type":"event","name":"RoleRevoked","inputs":[{"name":"role","type":"bytes32","indexed":true,"internalType":"bytes32"},{"name":"account","type":"address","indexed":true,"internalType":"address"},{"name":"sender","type":"address","indexed":true,"internalType":"address"}],"anonymous":false},{"type":"event","name":"Unpaused","inputs":[{"name":"account","type":"address","indexed":false,"internalType":"address"}],"anonymous":false},{"type":"error","name":"AccessControlBadConfirmation","inputs":[]},{"type":"error","name":"AccessControlUnauthorizedAccount","inputs":[{"name":"account","type":"address","internalType":"address"},{"name":"neededRole","type":"bytes32","internalType":"bytes32"}]},{"type":"error","name":"EnforcedPause","inputs":[]},{"type":"error","name":"ExpectedPause","inputs":[]}],"bytecode":{"object":"0x60c060405234801561000f575f80fd5b5060405161195b38038061195b83398101604081905261002e916101b0565b5f805460ff191681557f65d7a28e3265b37a6474929f336521b332c1681b933f6cb9f3376673440d862a6080527f3fc7735c85a339a1b1daf5a92efc57ff14e2074379b26c7a2cf4384435ea308460a0526100899086610103565b506080516100979086610103565b5060a0516100a59086610103565b50600380546001600160a01b039586166001600160a01b0319918216179091556004805462ffffff909316600160a01b026001600160b81b03199093169486169490941791909117909255600280549190931691161790555061021c565b5f8281526001602090815260408083206001600160a01b038516845290915281205460ff1661018c575f8381526001602081815260408084206001600160a01b0387168086529252808420805460ff19169093179092559051339286917f2f8788117e7eff1d82e926ec794901d17c78024a50270940304540a733656f0d9190a450600161018f565b505f5b92915050565b80516001600160a01b03811681146101ab575f80fd5b919050565b5f805f805f60a086880312156101c4575f80fd5b6101cd86610195565b94506101db60208701610195565b93506101e960408701610195565b92506101f760608701610195565b9150608086015162ffffff8116811461020e575f80fd5b809150509295509295909350565b60805160a05161171061024b5f395f61028a01525f8181610446015281816107c0015261086801526117105ff3fe608060405260043610610122575f3560e01c8063647846a51161009f578063bb29578a11610063578063bb29578a146103c4578063c7b8e15d146103e3578063d547741f146103f7578063df32135614610416578063e63ab1e91461043557610169565b8063647846a514610340578063756af45f1461035f5780638456cb591461037e57806391d1485414610392578063a217fddf146103b157610169565b80632f2ff15d116100e65780632f2ff15d146102ac57806336568abe146102cb5780633f4ba83a146102ea578063542524dd146102fe5780635c975abb1461032a57610169565b806301ffc9a7146101b1578063089fe6aa146101e55780631c97dad81461021b578063248a9ca31461023c578063285877fb1461027957610169565b366101695760405162461bcd60e51b8152602060048201526012602482015271115d1a195c881b9bdd081858d8d95c1d195960721b60448201526064015b60405180910390fd5b60405162461bcd60e51b815260206004820152601760248201527f46756e6374696f6e20646f6573206e6f742065786973740000000000000000006044820152606401610160565b3480156101bc575f80fd5b506101d06101cb366004610fe2565b610468565b60405190151581526020015b60405180910390f35b3480156101f0575f80fd5b5060045461020790600160a01b900462ffffff1681565b60405162ffffff90911681526020016101dc565b348015610226575f80fd5b5061023a61023536600461131b565b61049e565b005b348015610247575f80fd5b5061026b61025636600461145f565b5f908152600160208190526040909120015490565b6040519081526020016101dc565b348015610284575f80fd5b5061026b7f000000000000000000000000000000000000000000000000000000000000000081565b3480156102b7575f80fd5b5061023a6102c6366004611476565b61075b565b3480156102d6575f80fd5b5061023a6102e5366004611476565b610786565b3480156102f5575f80fd5b5061023a6107be565b348015610309575f80fd5b506103126107f3565b6040516001600160a01b0390911681526020016101dc565b348015610335575f80fd5b505f5460ff166101d0565b34801561034b575f80fd5b50600454610312906001600160a01b031681565b34801561036a575f80fd5b5061023a6103793660046114a4565b610815565b348015610389575f80fd5b5061023a610866565b34801561039d575f80fd5b506101d06103ac366004611476565b610898565b3480156103bc575f80fd5b5061026b5f81565b3480156103cf575f80fd5b5061023a6103de3660046114bf565b6108c2565b3480156103ee575f80fd5b506103126108f3565b348015610402575f80fd5b5061023a610411366004611476565b610903565b348015610421575f80fd5b5061026b6104303660046114eb565b610928565b348015610440575f80fd5b5061026b7f000000000000000000000000000000000000000000000000000000000000000081565b5f6001600160e01b03198216637965db0b60e01b148061049857506301ffc9a760e01b6001600160e01b03198316145b92915050565b6104a661099b565b6020810151518151511480156104c55750806060015151816020015151145b6105115760405162461bcd60e51b815260206004820152601860248201527f496e76616c696420696e70757420706172616d657465727300000000000000006044820152606401610160565b5f805b82602001515181101561055457826020015181815181106105375761053761150b565b60200260200101518261054a9190611533565b9150600101610514565b5080612710146105b15760405162461bcd60e51b815260206004820152602260248201527f496e70757420616d6f756e7473206d7573742061646420757020746f20313030604482015261030360f41b6064820152608401610160565b8160c001516105c4848460e001516109c0565b10156106095760405162461bcd60e51b8152602060048201526014602482015273496e73756666696369656e742062616c616e636560601b6044820152606401610160565b5f60328360c0015161061b9190611546565b60a08401519091505f901561063f57818460c0015161063a9190611565565b610645565b8360c001515b905061065b8460e0015186308760c00151610a34565b60e084015160035460c086015161067c92916001600160a01b031690610b31565b8360a00151156106b0576106ae84608001516106988385610928565b604080515f815260208101909152600190610c2c565b505b5f5b845151811015610753575f610705866060015183815181106106d6576106d661150b565b602002602001015161069885896020015186815181106106f8576106f861150b565b6020026020010151610928565b905061074a865f0151838151811061071f5761071f61150b565b6020026020010151308961073385600f0b90565b6fffffffffffffffffffffffffffffffff16610a34565b506001016106b2565b505050505050565b5f828152600160208190526040909120015461077681610d1b565b6107808383610d25565b50505050565b6001600160a01b03811633146107af5760405163334bd91960e11b815260040160405180910390fd5b6107b98282610d9b565b505050565b7f00000000000000000000000000000000000000000000000000000000000000006107e881610d1b565b6107f0610e06565b50565b610812600173fffd8963efd1fc6a506488495d951d5263988d26611578565b81565b5f61081f81610d1b565b6001600160a01b038216156108625760405182906001600160a01b038216904780156108fc02915f818181858888f19350505050158015610780573d5f803e3d5ffd5b5050565b7f000000000000000000000000000000000000000000000000000000000000000061089081610d1b565b6107f0610e57565b5f9182526001602090815260408084206001600160a01b0393909316845291905290205460ff1690565b5f6108cc81610d1b565b6001600160a01b038316156107b9575f6108e684846109c0565b9050610780838583610e93565b6108126401000276a36001611597565b5f828152600160208190526040909120015461091e81610d1b565b6107808383610d9b565b5f61271061093683856115b6565b101561097d5760405162461bcd60e51b8152602060048201526016602482015275496e76616c696420616d6f756e7420656e747269657360501b6044820152606401610160565b61271061098a83856115b6565b6109949190611546565b9392505050565b5f5460ff16156109be5760405163d93c066560e01b815260040160405180910390fd5b565b6040516370a0823160e01b81526001600160a01b0383811660048301525f9183918216906370a0823190602401602060405180830381865afa158015610a08573d5f803e3d5ffd5b505050506040513d601f19601f82011682018060405250810190610a2c91906115cd565b949350505050565b604080516001600160a01b0385811660248301528481166044830152606480830185905283518084039091018152608490920183526020820180516001600160e01b03166323b872dd60e01b17905291515f92839290881691610a9791906115e4565b5f604051808303815f865af19150503d805f8114610ad0576040519150601f19603f3d011682016040523d82523d5f602084013e610ad5565b606091505b5091509150818015610aff575080511580610aff575080806020019051810190610aff91906115fa565b6107535760405162461bcd60e51b815260206004820152600360248201526229aa2360e91b6044820152606401610160565b604080516001600160a01b038481166024830152604480830185905283518084039091018152606490920183526020820180516001600160e01b031663095ea7b360e01b17905291515f92839290871691610b8c91906115e4565b5f604051808303815f865af19150503d805f8114610bc5576040519150601f19603f3d011682016040523d82523d5f602084013e610bca565b606091505b5091509150818015610bf4575080511580610bf4575080806020019051810190610bf491906115fa565b610c255760405162461bcd60e51b8152602060048201526002602482015261534160f01b6044820152606401610160565b5050505050565b5f806040518060600160405280851515815260200186815260200185610c7057610c6b600173fffd8963efd1fc6a506488495d951d5263988d26611578565b610c80565b610c806401000276a36001611597565b6001600160a01b039081169091526040805180820182525f8082526020820152600254915163088a742d60e21b815293945092911690632229d0b490610cd0908a90869086908a90600401611643565b6020604051808303815f875af1158015610cec573d5f803e3d5ffd5b505050506040513d601f19601f82011682018060405250810190610d1091906115cd565b979650505050505050565b6107f08133610f87565b5f610d308383610898565b610d94575f8381526001602081815260408084206001600160a01b0387168086529252808420805460ff19169093179092559051339286917f2f8788117e7eff1d82e926ec794901d17c78024a50270940304540a733656f0d9190a4506001610498565b505f610498565b5f610da68383610898565b15610d94575f8381526001602090815260408083206001600160a01b0386168085529252808320805460ff1916905551339286917ff6391f5c32d9c69d2a47ea670b442974b53935d1edc7fd64eb21e047a839171b9190a4506001610498565b610e0e610fc0565b5f805460ff191690557f5db9ee0a495bf2e6ff9c91a7834c1ba4fdd244a5e8aa4e537bd38aeae4b073aa335b6040516001600160a01b03909116815260200160405180910390a1565b610e5f61099b565b5f805460ff191660011790557f62e78cea01bee320cd4e420270b5ea74000d11b0c9f74754ebdbfc544b05a258610e3a3390565b604080516001600160a01b038481166024830152604480830185905283518084039091018152606490920183526020820180516001600160e01b031663a9059cbb60e01b17905291515f92839290871691610eee91906115e4565b5f604051808303815f865af19150503d805f8114610f27576040519150601f19603f3d011682016040523d82523d5f602084013e610f2c565b606091505b5091509150818015610f56575080511580610f56575080806020019051810190610f5691906115fa565b610c255760405162461bcd60e51b815260206004820152600260248201526114d560f21b6044820152606401610160565b610f918282610898565b6108625760405163e2517d3f60e01b81526001600160a01b038216600482015260248101839052604401610160565b5f5460ff166109be57604051638dfc202b60e01b815260040160405180910390fd5b5f60208284031215610ff2575f80fd5b81356001600160e01b031981168114610994575f80fd5b6001600160a01b03811681146107f0575f80fd5b803561102881611009565b919050565b634e487b7160e01b5f52604160045260245ffd5b604051610100810167ffffffffffffffff811182821017156110655761106561102d565b60405290565b604051601f8201601f1916810167ffffffffffffffff811182821017156110945761109461102d565b604052919050565b5f67ffffffffffffffff8211156110b5576110b561102d565b5060051b60200190565b5f82601f8301126110ce575f80fd5b81356110e16110dc8261109c565b61106b565b8082825260208201915060208360051b860101925085831115611102575f80fd5b602085015b8381101561112857803561111a81611009565b835260209283019201611107565b5095945050505050565b5f82601f830112611141575f80fd5b813561114f6110dc8261109c565b8082825260208201915060208360051b860101925085831115611170575f80fd5b602085015b83811015611128578035835260209283019201611175565b803562ffffff81168114611028575f80fd5b5f82601f8301126111ae575f80fd5b81356111bc6110dc8261109c565b8082825260208201915060208360051b8601019250858311156111dd575f80fd5b602085015b83811015611128576111f38161118d565b8352602092830192016111e2565b5f60a08284031215611211575f80fd5b60405160a0810167ffffffffffffffff811182821017156112345761123461102d565b604052905080823561124581611009565b8152602083013561125581611009565b60208201526112666040840161118d565b604082015260608301358060020b811461127e575f80fd5b6060820152608083013561129181611009565b6080919091015292915050565b5f82601f8301126112ad575f80fd5b81356112bb6110dc8261109c565b80828252602082019150602060a084028601019250858311156112dc575f80fd5b602085015b83811015611128576112f38782611201565b835260209092019160a0016112e1565b80151581146107f0575f80fd5b803561102881611303565b5f806040838503121561132c575f80fd5b823561133781611009565b9150602083013567ffffffffffffffff811115611352575f80fd5b83016101808186031215611364575f80fd5b61136c611041565b813567ffffffffffffffff811115611382575f80fd5b61138e878285016110bf565b825250602082013567ffffffffffffffff8111156113aa575f80fd5b6113b687828501611132565b602083015250604082013567ffffffffffffffff8111156113d5575f80fd5b6113e18782850161119f565b604083015250606082013567ffffffffffffffff811115611400575f80fd5b61140c8782850161129e565b60608301525061141f8660808401611201565b60808201526114316101208301611310565b60a082015261014082013560c082015261144e610160830161101d565b60e082015280925050509250929050565b5f6020828403121561146f575f80fd5b5035919050565b5f8060408385031215611487575f80fd5b82359150602083013561149981611009565b809150509250929050565b5f602082840312156114b4575f80fd5b813561099481611009565b5f80604083850312156114d0575f80fd5b82356114db81611009565b9150602083013561149981611009565b5f80604083850312156114fc575f80fd5b50508035926020909101359150565b634e487b7160e01b5f52603260045260245ffd5b634e487b7160e01b5f52601160045260245ffd5b808201808211156104985761049861151f565b5f8261156057634e487b7160e01b5f52601260045260245ffd5b500490565b818103818111156104985761049861151f565b6001600160a01b0382811682821603908111156104985761049861151f565b6001600160a01b0381811683821601908111156104985761049861151f565b80820281158282048414176104985761049861151f565b5f602082840312156115dd575f80fd5b5051919050565b5f82518060208501845e5f920191825250919050565b5f6020828403121561160a575f80fd5b815161099481611303565b5f81518084528060208401602086015e5f602082860101526020601f19601f83011685010191505092915050565b84516001600160a01b03908116825260208087015182168184015260408088015162ffffff168185015260608089015160020b908501526080808901518416908501528651151560a08501529086015160c08401528501511660e082015282511515610100820152602083015115156101208201526101606101408201525f6116d0610160830184611615565b969550505050505056fea264697066735822122081aad63d3d9e49050b19e01901e72181736bb94a1202e06431d3ef73f945770864736f6c634300081a0033","linkReferences":{}},"methodIdentifiers":{"BATCH_CALL_ROLE()":"285877fb","DEFAULT_ADMIN_ROLE()":"a217fddf","MAX_PRICE_LIMIT()":"542524dd","MIN_PRICE_LIMIT()":"c7b8e15d","PAUSER_ROLE()":"e63ab1e9","calculateFromPercent(uint256,uint256)":"df321356","feeToken()":"647846a5","getRoleAdmin(bytes32)":"248a9ca3","grantRole(bytes32,address)":"2f2ff15d","hasRole(bytes32,address)":"91d14854","pause()":"8456cb59","paused()":"5c975abb","performSwapBatch(address,(address[],uint256[],uint24[],(address,address,uint24,int24,address)[],(address,address,uint24,int24,address),bool,uint256,address))":"1c97dad8","poolFee()":"089fe6aa","renounceRole(bytes32,address)":"36568abe","revokeRole(bytes32,address)":"d547741f","supportsInterface(bytes4)":"01ffc9a7","unpause()":"3f4ba83a","withdrawBalance(address)":"756af45f","withdrawTokenBalance(address,address)":"bb29578a"},"id":0}