{"abi":[{"type":"constructor","inputs":[{"name":"owner_xucre","type":"address","internalType":"address"},{"name":"tokenContract_xucre","type":"address","internalType":"address"},{"name":"_swapRouter","type":"address","internalType":"address"},{"name":"poolFee_xucre","type":"uint24","internalType":"uint24"}],"stateMutability":"nonpayable"},{"type":"fallback","stateMutability":"payable"},{"type":"receive","stateMutability":"payable"},{"type":"function","name":"BATCH_CALL_ROLE","inputs":[],"outputs":[{"name":"","type":"bytes32","internalType":"bytes32"}],"stateMutability":"view"},{"type":"function","name":"DEFAULT_ADMIN_ROLE","inputs":[],"outputs":[{"name":"","type":"bytes32","internalType":"bytes32"}],"stateMutability":"view"},{"type":"function","name":"MAX_PRICE_LIMIT","inputs":[],"outputs":[{"name":"","type":"uint160","internalType":"uint160"}],"stateMutability":"view"},{"type":"function","name":"MIN_PRICE_LIMIT","inputs":[],"outputs":[{"name":"","type":"uint160","internalType":"uint160"}],"stateMutability":"view"},{"type":"function","name":"PAUSER_ROLE","inputs":[],"outputs":[{"name":"","type":"bytes32","internalType":"bytes32"}],"stateMutability":"view"},{"type":"function","name":"calculateFromPercent","inputs":[{"name":"amount_xucre","type":"uint256","internalType":"uint256"},{"name":"bps_xucre","type":"uint256","internalType":"uint256"}],"outputs":[{"name":"","type":"uint256","internalType":"uint256"}],"stateMutability":"pure"},{"type":"function","name":"feeToken","inputs":[],"outputs":[{"name":"","type":"address","internalType":"address"}],"stateMutability":"view"},{"type":"function","name":"getPoolKey","inputs":[{"name":"token0","type":"address","internalType":"address"},{"name":"token1","type":"address","internalType":"address"},{"name":"fee","type":"uint24","internalType":"uint24"},{"name":"tickSpacing","type":"int24","internalType":"int24"}],"outputs":[{"name":"","type":"tuple","internalType":"struct PoolKey","components":[{"name":"currency0","type":"address","internalType":"Currency"},{"name":"currency1","type":"address","internalType":"Currency"},{"name":"fee","type":"uint24","internalType":"uint24"},{"name":"tickSpacing","type":"int24","internalType":"int24"},{"name":"hooks","type":"address","internalType":"contract IHooks"}]}],"stateMutability":"pure"},{"type":"function","name":"getRoleAdmin","inputs":[{"name":"role","type":"bytes32","internalType":"bytes32"}],"outputs":[{"name":"","type":"bytes32","internalType":"bytes32"}],"stateMutability":"view"},{"type":"function","name":"grantRole","inputs":[{"name":"role","type":"bytes32","internalType":"bytes32"},{"name":"account","type":"address","internalType":"address"}],"outputs":[],"stateMutability":"nonpayable"},{"type":"function","name":"hasRole","inputs":[{"name":"role","type":"bytes32","internalType":"bytes32"},{"name":"account","type":"address","internalType":"address"}],"outputs":[{"name":"","type":"bool","internalType":"bool"}],"stateMutability":"view"},{"type":"function","name":"pause","inputs":[],"outputs":[],"stateMutability":"nonpayable"},{"type":"function","name":"paused","inputs":[],"outputs":[{"name":"","type":"bool","internalType":"bool"}],"stateMutability":"view"},{"type":"function","name":"performSwapBatch","inputs":[{"name":"to_xucre","type":"address","internalType":"address"},{"name":"etfDefinition","type":"tuple","internalType":"struct XucreIndexFunds.ETFDefinition","components":[{"name":"targetTokens","type":"address[]","internalType":"address[]"},{"name":"inputAmounts","type":"uint256[]","internalType":"uint256[]"},{"name":"poolFees","type":"uint24[]","internalType":"uint24[]"},{"name":"tickSpacings","type":"int24[]","internalType":"int24[]"},{"name":"sourceFee","type":"uint24","internalType":"uint24"},{"name":"sourceTickSpacing","type":"int24","internalType":"int24"},{"name":"hasFees","type":"bool","internalType":"bool"},{"name":"amount","type":"uint256","internalType":"uint256"},{"name":"sourceToken","type":"address","internalType":"address"}]}],"outputs":[],"stateMutability":"nonpayable"},{"type":"function","name":"poolFee","inputs":[],"outputs":[{"name":"","type":"uint24","internalType":"uint24"}],"stateMutability":"view"},{"type":"function","name":"renounceRole","inputs":[{"name":"role","type":"bytes32","internalType":"bytes32"},{"name":"callerConfirmation","type":"address","internalType":"address"}],"outputs":[],"stateMutability":"nonpayable"},{"type":"function","name":"revokeRole","inputs":[{"name":"role","type":"bytes32","internalType":"bytes32"},{"name":"account","type":"address","internalType":"address"}],"outputs":[],"stateMutability":"nonpayable"},{"type":"function","name":"supportsInterface","inputs":[{"name":"interfaceId","type":"bytes4","internalType":"bytes4"}],"outputs":[{"name":"","type":"bool","internalType":"bool"}],"stateMutability":"view"},{"type":"function","name":"unpause","inputs":[],"outputs":[],"stateMutability":"nonpayable"},{"type":"function","name":"withdrawBalance","inputs":[{"name":"xucre_to","type":"address","internalType":"address"}],"outputs":[],"stateMutability":"nonpayable"},{"type":"function","name":"withdrawTokenBalance","inputs":[{"name":"xucre_to","type":"address","internalType":"address"},{"name":"xucre_tokenAddress","type":"address","internalType":"address"}],"outputs":[],"stateMutability":"nonpayable"},{"type":"event","name":"Paused","inputs":[{"name":"account","type":"address","indexed":false,"internalType":"address"}],"anonymous":false},{"type":"event","name":"RoleAdminChanged","inputs":[{"name":"role","type":"bytes32","indexed":true,"internalType":"bytes32"},{"name":"previousAdminRole","type":"bytes32","indexed":true,"internalType":"bytes32"},{"name":"newAdminRole","type":"bytes32","indexed":true,"internalType":"bytes32"}],"anonymous":false},{"type":"event","name":"RoleGranted","inputs":[{"name":"role","type":"bytes32","indexed":true,"internalType":"bytes32"},{"name":"account","type":"address","indexed":true,"internalType":"address"},{"name":"sender","type":"address","indexed":true,"internalType":"address"}],"anonymous":false},{"type":"event","name":"RoleRevoked","inputs":[{"name":"role","type":"bytes32","indexed":true,"internalType":"bytes32"},{"name":"account","type":"address","indexed":true,"internalType":"address"},{"name":"sender","type":"address","indexed":true,"internalType":"address"}],"anonymous":false},{"type":"event","name":"Unpaused","inputs":[{"name":"account","type":"address","indexed":false,"internalType":"address"}],"anonymous":false},{"type":"error","name":"AccessControlBadConfirmation","inputs":[]},{"type":"error","name":"AccessControlUnauthorizedAccount","inputs":[{"name":"account","type":"address","internalType":"address"},{"name":"neededRole","type":"bytes32","internalType":"bytes32"}]},{"type":"error","name":"EnforcedPause","inputs":[]},{"type":"error","name":"ExpectedPause","inputs":[]}],"bytecode":{"object":"0x60c03461015b57601f6116d838819003918201601f19168301916001600160401b0383118484101761015f5780849260809460405283398101031261015b5761004781610173565b61005360208301610173565b90606061006260408501610173565b9301519062ffffff8216820361015b576100e59060ff195f54165f557f65d7a28e3265b37a6474929f336521b332c1681b933f6cb9f3376673440d862a6080527f3fc7735c85a339a1b1daf5a92efc57ff14e2074379b26c7a2cf4384435ea308460a0526100cf81610187565b506100dc816080516101fd565b5060a0516101fd565b50600380546001600160b81b0319166001600160a01b039384161760a09290921b62ffffff60a01b16919091179055600280546001600160a01b031916929091169190911790556040516114219081610277823960805181818161019f0152818161042a0152610576015260a0518161067f0152f35b5f80fd5b634e487b7160e01b5f52604160045260245ffd5b51906001600160a01b038216820361015b57565b6001600160a01b0381165f9081525f805160206116b8833981519152602052604090205460ff166101f8576001600160a01b03165f8181525f805160206116b883398151915260205260408120805460ff191660011790553391905f805160206116988339815191528180a4600190565b505f90565b5f8181526001602090815260408083206001600160a01b038616845290915290205460ff16610270575f8181526001602081815260408084206001600160a01b0396909616808552959091528220805460ff19169091179055339291905f805160206116988339815191529080a4600190565b50505f9056fe6080806040526004361015610095575b50361561005b5760405162461bcd60e51b815260206004820152601760248201527f46756e6374696f6e20646f6573206e6f742065786973740000000000000000006044820152606490fd5b60405162461bcd60e51b8152602060048201526012602482015271115d1a195c881b9bdd081858d8d95c1d195960721b6044820152606490fd5b5f3560e01c90816301ffc9a714610d6457508063089fe6aa14610d3f5780631aa138de146106cd578063248a9ca3146106a2578063285877fb146106685780632f2ff15d1461062a57806336568abe146105e65780633f4ba83a14610561578063542524dd146105325780635c975abb14610511578063647846a5146104e9578063756af45f1461048d5780638456cb591461041557806391d14854146103cc578063a217fddf146103b2578063a57b440314610358578063bb29578a14610254578063c7b8e15d14610234578063d547741f146101ef578063df321356146101c65763e63ab1e914610188575f61000f565b346101c2575f3660031901126101c25760206040517f00000000000000000000000000000000000000000000000000000000000000008152f35b5f80fd5b346101c25760403660031901126101c25760206101e7602435600435610f4d565b604051908152f35b346101c25760403660031901126101c25761023260043561020e610dcd565b9061022d610228825f526001602052600160405f20015490565b6112a1565b611367565b005b346101c2575f3660031901126101c25760206401000276a4604051908152f35b346101c25760403660031901126101c25761026d610db7565b610275610dcd565b9061027e611252565b6001600160a01b03811661028e57005b81815f6102d76102e56102a383978497610fc8565b60405163a9059cbb60e01b602082019081526001600160a01b03909616602482015260448101919091529182906064820190565b03601f198101835282610e13565b51925af16102f1611033565b81610329575b50156102ff57005b60405162461bcd60e51b815260206004820152600260248201526114d560f21b6044820152606490fd5b805180159250821561033e575b5050816102f7565b6103519250602080918301019101611072565b8180610336565b346101c25760803660031901126101c257610371610db7565b610379610dcd565b9060443562ffffff811681036101c257606435908160020b82036101c25760a0936103a393610ed6565b6103b06040518092610e6b565bf35b346101c2575f3660031901126101c25760206040515f8152f35b346101c25760403660031901126101c2576103e5610dcd565b6004355f52600160205260405f209060018060a01b03165f52602052602060ff60405f2054166040519015158152f35b346101c2575f3660031901126101c25761044e7f00000000000000000000000000000000000000000000000000000000000000006112a1565b610456610fae565b600160ff195f5416175f557f62e78cea01bee320cd4e420270b5ea74000d11b0c9f74754ebdbfc544b05a2586020604051338152a1005b346101c25760203660031901126101c2576104a6610db7565b6104ae611252565b6001600160a01b0316806104be57005b5f8080809347908282156104e0575bf1156104d557005b6040513d5f823e3d90fd5b506108fc6104cd565b346101c2575f3660031901126101c2576003546040516001600160a01b039091168152602090f35b346101c2575f3660031901126101c257602060ff5f54166040519015158152f35b346101c2575f3660031901126101c257602073fffd8963efd1fc6a506488495d951d5263988d25604051908152f35b346101c2575f3660031901126101c25761059a7f00000000000000000000000000000000000000000000000000000000000000006112a1565b5f5460ff8116156105d75760ff19165f557f5db9ee0a495bf2e6ff9c91a7834c1ba4fdd244a5e8aa4e537bd38aeae4b073aa6020604051338152a1005b638dfc202b60e01b5f5260045ffd5b346101c25760403660031901126101c2576105ff610dcd565b336001600160a01b0382160361061b5761023290600435611367565b63334bd91960e11b5f5260045ffd5b346101c25760403660031901126101c257610232600435610649610dcd565b90610663610228825f526001602052600160405f20015490565b6112db565b346101c2575f3660031901126101c25760206040517f00000000000000000000000000000000000000000000000000000000000000008152f35b346101c25760203660031901126101c25760206101e76004355f526001602052600160405f20015490565b346101c25760403660031901126101c2576106e6610db7565b6024359067ffffffffffffffff82116101c25761012060031983360301126101c25760405190610120820182811067ffffffffffffffff821117610d2b57604052826004013567ffffffffffffffff81116101c2578301366023820112156101c25760048101359061075782610e35565b916107656040519384610e13565b808352602060048185019260051b84010101913683116101c257602401905b828210610d13575050508252602483013567ffffffffffffffff81116101c257830192366023850112156101c2576004840135936107c185610e35565b946107cf6040519687610e13565b808652602060048188019260051b84010101913683116101c257602401905b828210610d035750505060208301938452604481013567ffffffffffffffff81116101c257810193366023860112156101c25760048501359461083086610e35565b9561083e6040519788610e13565b808752602060048189019260051b84010101913683116101c257602401905b828210610ceb5750505060408401948552606482013567ffffffffffffffff81116101c2578201366023820112156101c25760048101359061089e82610e35565b916108ac6040519384610e13565b808352602060048185019260051b84010101913683116101c257602401905b828210610cd357505050606085019081526108e860848401610e4d565b60808601526108f960a48401610e5d565b9460a0810195865260c48401359485151586036101c25760c0820195865261092f61010460e084019660e4810135885201610de3565b976101008301988952610940610fae565b8251518551518091149081610cc7575b5015610c82575f98895b865180518c1015610998578b61096f91610eae565b518101809111610984576001909a019961095a565b634e487b7160e01b5f52601160045260245ffd5b50886127108b9203610c325782516109b9906001600160a01b031686610fc8565b895111610bf6576032895104918151155f14610be1575f808b519b5b865181516109ef9130908c906001600160a01b031661108a565b8651600254915160405163095ea7b360e01b602082019081526001600160a01b039485166024830152604482019290925292909116918390610a3481606481016102d7565b51925af1610a40611033565b81610bb2575b5015610b885783516003549151610a7b9260029190910b9160a082901c62ffffff16916001600160a01b039081169116610ed6565b9051610b55575b50602090505f805b865190815181101561023257610b4f610b1f8b610b038e610afc868f600199610af5918f8f8562ffffff8f82610aeb9482610ae29360a01b039051169760018281610ad99260a01b0392610eae565b51169551610eae565b51169351610eae565b5160020b92610ed6565b9451610eae565b5190610f4d565b60405191610b118984610e13565b5f835287368a850137611148565b886fffffffffffffffffffffffffffffffff8b610b4386888060a01b039251610eae565b5116921691309061108a565b01610a8a565b610b62610b80928a610f4d565b60405191610b71602084610e13565b5f808452366020850137611148565b508780610a82565b60405162461bcd60e51b8152602060048201526002602482015261534160f01b6044820152606490fd5b8051801592508215610bc7575b50508b610a46565b610bda9250602080918301019101611072565b8b80610bbf565b8951838103908111610984575f80919b6109d5565b60405162461bcd60e51b8152602060048201526014602482015273496e73756666696369656e742062616c616e636560601b6044820152606490fd5b60405162461bcd60e51b815260206004820152602260248201527f496e70757420616d6f756e7473206d7573742061646420757020746f20313030604482015261030360f41b6064820152608490fd5b60405162461bcd60e51b815260206004820152601860248201527f496e76616c696420696e70757420706172616d657465727300000000000000006044820152606490fd5b9050845151148a610950565b60208091610ce084610e5d565b8152019101906108cb565b60208091610cf884610e4d565b81520191019061085d565b81358152602091820191016107ee565b60208091610d2084610de3565b815201910190610784565b634e487b7160e01b5f52604160045260245ffd5b346101c2575f3660031901126101c257602062ffffff60035460a01c16604051908152f35b346101c25760203660031901126101c2576004359063ffffffff60e01b82168092036101c257602091637965db0b60e01b8114908115610da6575b5015158152f35b6301ffc9a760e01b14905083610d9f565b600435906001600160a01b03821682036101c257565b602435906001600160a01b03821682036101c257565b35906001600160a01b03821682036101c257565b60a0810190811067ffffffffffffffff821117610d2b57604052565b90601f8019910116810190811067ffffffffffffffff821117610d2b57604052565b67ffffffffffffffff8111610d2b5760051b60200190565b359062ffffff821682036101c257565b35908160020b82036101c257565b80516001600160a01b03908116835260208083015182169084015260408083015162ffffff169084015260608083015160020b9084015260809182015116910152565b8051821015610ec25760209160051b010190565b634e487b7160e01b5f52603260045260245ffd5b929162ffffff915f6080604051610eec81610df7565b828152826020820152826040820152826060820152015260405194610f1086610df7565b6001600160a01b03908116865216602085015216604083015260020b60608201525f608082015290565b8181029291811591840414171561098457565b612710610f5a8383610f3a565b10610f705761271091610f6c91610f3a565b0490565b60405162461bcd60e51b8152602060048201526016602482015275496e76616c696420616d6f756e7420656e747269657360501b6044820152606490fd5b60ff5f5416610fb957565b63d93c066560e01b5f5260045ffd5b6040516370a0823160e01b81526001600160a01b0391821660048201529160209183916024918391165afa9081156104d5575f91611004575090565b90506020813d60201161102b575b8161101f60209383610e13565b810103126101c2575190565b3d9150611012565b3d1561106d573d9067ffffffffffffffff8211610d2b5760405191611062601f8201601f191660200184610e13565b82523d5f602084013e565b606090565b908160209103126101c2575180151581036101c25790565b6040516323b872dd60e01b602082019081526001600160a01b0393841660248301529390921660448301526064808301949094529281525f928392909183906110d4608482610e13565b51925af16110e0611033565b81611119575b50156110ee57565b60405162461bcd60e51b815260206004820152600360248201526229aa2360e91b6044820152606490fd5b805180159250821561112e575b50505f6110e6565b6111419250602080918301019101611072565b5f80611126565b90916401000276a4604051916060830183811067ffffffffffffffff821117610d2b5760405260018352602083019485526040830191825260405190604082019180831067ffffffffffffffff841117610d2b57602095865f93610184936111e1966040528581528281019086825260018060a01b0360025416986040519c8d9b8c9a8b9863088a742d60e21b8a5260048a0190610e6b565b51151560a48801525160c4870152516001600160a01b031660e486015251151561010485015251151561012484015261016061014484015280516101648401819052918291018484015e8181018301849052601f01601f191681010301925af19081156104d5575f91611004575090565b335f9081527fa6eef7e35abe7026729641147f7915573c7e97b47efa546f5f6e3230263bcb49602052604090205460ff161561128a57565b63e2517d3f60e01b5f52336004525f60245260445ffd5b5f81815260016020908152604080832033845290915290205460ff16156112c55750565b63e2517d3f60e01b5f523360045260245260445ffd5b5f8181526001602090815260408083206001600160a01b038616845290915290205460ff16611361575f8181526001602081815260408084206001600160a01b0396909616808552959091528220805460ff19169091179055339291907f2f8788117e7eff1d82e926ec794901d17c78024a50270940304540a733656f0d9080a4600190565b50505f90565b5f8181526001602090815260408083206001600160a01b038616845290915290205460ff1615611361575f8181526001602090815260408083206001600160a01b0395909516808452949091528120805460ff19169055339291907ff6391f5c32d9c69d2a47ea670b442974b53935d1edc7fd64eb21e047a839171b9080a460019056fea26469706673582212200f1ee4521d8ca731ef61754d5e29a4526e9c6a608fa5025566d83ea0064b927f64736f6c634300081a00332f8788117e7eff1d82e926ec794901d17c78024a50270940304540a733656f0da6eef7e35abe7026729641147f7915573c7e97b47efa546f5f6e3230263bcb49","linkReferences":{}},"methodIdentifiers":{"BATCH_CALL_ROLE()":"285877fb","DEFAULT_ADMIN_ROLE()":"a217fddf","MAX_PRICE_LIMIT()":"542524dd","MIN_PRICE_LIMIT()":"c7b8e15d","PAUSER_ROLE()":"e63ab1e9","calculateFromPercent(uint256,uint256)":"df321356","feeToken()":"647846a5","getPoolKey(address,address,uint24,int24)":"a57b4403","getRoleAdmin(bytes32)":"248a9ca3","grantRole(bytes32,address)":"2f2ff15d","hasRole(bytes32,address)":"91d14854","pause()":"8456cb59","paused()":"5c975abb","performSwapBatch(address,(address[],uint256[],uint24[],int24[],uint24,int24,bool,uint256,address))":"1aa138de","poolFee()":"089fe6aa","renounceRole(bytes32,address)":"36568abe","revokeRole(bytes32,address)":"d547741f","supportsInterface(bytes4)":"01ffc9a7","unpause()":"3f4ba83a","withdrawBalance(address)":"756af45f","withdrawTokenBalance(address,address)":"bb29578a"},"id":7}