{"abi":[{"type":"constructor","inputs":[{"name":"_poolManager","type":"address","internalType":"contract IPoolManager"},{"name":"_permit2","type":"address","internalType":"contract IAllowanceTransfer"},{"name":"_unsubscribeGasLimit","type":"uint256","internalType":"uint256"},{"name":"_tokenDescriptor","type":"address","internalType":"contract IPositionDescriptor"}],"stateMutability":"nonpayable"},{"type":"function","name":"DOMAIN_SEPARATOR","inputs":[],"outputs":[{"name":"","type":"bytes32","internalType":"bytes32"}],"stateMutability":"view"},{"type":"function","name":"approve","inputs":[{"name":"spender","type":"address","internalType":"address"},{"name":"id","type":"uint256","internalType":"uint256"}],"outputs":[],"stateMutability":"nonpayable"},{"type":"function","name":"balanceOf","inputs":[{"name":"owner","type":"address","internalType":"address"}],"outputs":[{"name":"","type":"uint256","internalType":"uint256"}],"stateMutability":"view"},{"type":"function","name":"getApproved","inputs":[{"name":"","type":"uint256","internalType":"uint256"}],"outputs":[{"name":"","type":"address","internalType":"address"}],"stateMutability":"view"},{"type":"function","name":"getPoolAndPositionInfo","inputs":[{"name":"tokenId","type":"uint256","internalType":"uint256"}],"outputs":[{"name":"poolKey","type":"tuple","internalType":"struct PoolKey","components":[{"name":"currency0","type":"address","internalType":"Currency"},{"name":"currency1","type":"address","internalType":"Currency"},{"name":"fee","type":"uint24","internalType":"uint24"},{"name":"tickSpacing","type":"int24","internalType":"int24"},{"name":"hooks","type":"address","internalType":"contract IHooks"}]},{"name":"info","type":"uint256","internalType":"PositionInfo"}],"stateMutability":"view"},{"type":"function","name":"getPositionLiquidity","inputs":[{"name":"tokenId","type":"uint256","internalType":"uint256"}],"outputs":[{"name":"liquidity","type":"uint128","internalType":"uint128"}],"stateMutability":"view"},{"type":"function","name":"initializePool","inputs":[{"name":"key","type":"tuple","internalType":"struct PoolKey","components":[{"name":"currency0","type":"address","internalType":"Currency"},{"name":"currency1","type":"address","internalType":"Currency"},{"name":"fee","type":"uint24","internalType":"uint24"},{"name":"tickSpacing","type":"int24","internalType":"int24"},{"name":"hooks","type":"address","internalType":"contract IHooks"}]},{"name":"sqrtPriceX96","type":"uint160","internalType":"uint160"}],"outputs":[{"name":"","type":"int24","internalType":"int24"}],"stateMutability":"payable"},{"type":"function","name":"isApprovedForAll","inputs":[{"name":"","type":"address","internalType":"address"},{"name":"","type":"address","internalType":"address"}],"outputs":[{"name":"","type":"bool","internalType":"bool"}],"stateMutability":"view"},{"type":"function","name":"modifyLiquidities","inputs":[{"name":"unlockData","type":"bytes","internalType":"bytes"},{"name":"deadline","type":"uint256","internalType":"uint256"}],"outputs":[],"stateMutability":"payable"},{"type":"function","name":"modifyLiquiditiesWithoutUnlock","inputs":[{"name":"actions","type":"bytes","internalType":"bytes"},{"name":"params","type":"bytes[]","internalType":"bytes[]"}],"outputs":[],"stateMutability":"payable"},{"type":"function","name":"msgSender","inputs":[],"outputs":[{"name":"","type":"address","internalType":"address"}],"stateMutability":"view"},{"type":"function","name":"multicall","inputs":[{"name":"data","type":"bytes[]","internalType":"bytes[]"}],"outputs":[{"name":"results","type":"bytes[]","internalType":"bytes[]"}],"stateMutability":"payable"},{"type":"function","name":"name","inputs":[],"outputs":[{"name":"","type":"string","internalType":"string"}],"stateMutability":"view"},{"type":"function","name":"nextTokenId","inputs":[],"outputs":[{"name":"","type":"uint256","internalType":"uint256"}],"stateMutability":"view"},{"type":"function","name":"nonces","inputs":[{"name":"owner","type":"address","internalType":"address"},{"name":"word","type":"uint256","internalType":"uint256"}],"outputs":[{"name":"bitmap","type":"uint256","internalType":"uint256"}],"stateMutability":"view"},{"type":"function","name":"ownerOf","inputs":[{"name":"id","type":"uint256","internalType":"uint256"}],"outputs":[{"name":"owner","type":"address","internalType":"address"}],"stateMutability":"view"},{"type":"function","name":"permit","inputs":[{"name":"spender","type":"address","internalType":"address"},{"name":"tokenId","type":"uint256","internalType":"uint256"},{"name":"deadline","type":"uint256","internalType":"uint256"},{"name":"nonce","type":"uint256","internalType":"uint256"},{"name":"signature","type":"bytes","internalType":"bytes"}],"outputs":[],"stateMutability":"payable"},{"type":"function","name":"permit","inputs":[{"name":"owner","type":"address","internalType":"address"},{"name":"permitSingle","type":"tuple","internalType":"struct IAllowanceTransfer.PermitSingle","components":[{"name":"details","type":"tuple","internalType":"struct IAllowanceTransfer.PermitDetails","components":[{"name":"token","type":"address","internalType":"address"},{"name":"amount","type":"uint160","internalType":"uint160"},{"name":"expiration","type":"uint48","internalType":"uint48"},{"name":"nonce","type":"uint48","internalType":"uint48"}]},{"name":"spender","type":"address","internalType":"address"},{"name":"sigDeadline","type":"uint256","internalType":"uint256"}]},{"name":"signature","type":"bytes","internalType":"bytes"}],"outputs":[{"name":"err","type":"bytes","internalType":"bytes"}],"stateMutability":"payable"},{"type":"function","name":"permit2","inputs":[],"outputs":[{"name":"","type":"address","internalType":"contract IAllowanceTransfer"}],"stateMutability":"view"},{"type":"function","name":"permitBatch","inputs":[{"name":"owner","type":"address","internalType":"address"},{"name":"_permitBatch","type":"tuple","internalType":"struct IAllowanceTransfer.PermitBatch","components":[{"name":"details","type":"tuple[]","internalType":"struct IAllowanceTransfer.PermitDetails[]","components":[{"name":"token","type":"address","internalType":"address"},{"name":"amount","type":"uint160","internalType":"uint160"},{"name":"expiration","type":"uint48","internalType":"uint48"},{"name":"nonce","type":"uint48","internalType":"uint48"}]},{"name":"spender","type":"address","internalType":"address"},{"name":"sigDeadline","type":"uint256","internalType":"uint256"}]},{"name":"signature","type":"bytes","internalType":"bytes"}],"outputs":[{"name":"err","type":"bytes","internalType":"bytes"}],"stateMutability":"payable"},{"type":"function","name":"permitForAll","inputs":[{"name":"owner","type":"address","internalType":"address"},{"name":"operator","type":"address","internalType":"address"},{"name":"approved","type":"bool","internalType":"bool"},{"name":"deadline","type":"uint256","internalType":"uint256"},{"name":"nonce","type":"uint256","internalType":"uint256"},{"name":"signature","type":"bytes","internalType":"bytes"}],"outputs":[],"stateMutability":"payable"},{"type":"function","name":"poolKeys","inputs":[{"name":"poolId","type":"bytes25","internalType":"bytes25"}],"outputs":[{"name":"currency0","type":"address","internalType":"Currency"},{"name":"currency1","type":"address","internalType":"Currency"},{"name":"fee","type":"uint24","internalType":"uint24"},{"name":"tickSpacing","type":"int24","internalType":"int24"},{"name":"hooks","type":"address","internalType":"contract IHooks"}],"stateMutability":"view"},{"type":"function","name":"poolManager","inputs":[],"outputs":[{"name":"","type":"address","internalType":"contract IPoolManager"}],"stateMutability":"view"},{"type":"function","name":"positionInfo","inputs":[{"name":"tokenId","type":"uint256","internalType":"uint256"}],"outputs":[{"name":"info","type":"uint256","internalType":"PositionInfo"}],"stateMutability":"view"},{"type":"function","name":"revokeNonce","inputs":[{"name":"nonce","type":"uint256","internalType":"uint256"}],"outputs":[],"stateMutability":"payable"},{"type":"function","name":"safeTransferFrom","inputs":[{"name":"from","type":"address","internalType":"address"},{"name":"to","type":"address","internalType":"address"},{"name":"id","type":"uint256","internalType":"uint256"}],"outputs":[],"stateMutability":"nonpayable"},{"type":"function","name":"safeTransferFrom","inputs":[{"name":"from","type":"address","internalType":"address"},{"name":"to","type":"address","internalType":"address"},{"name":"id","type":"uint256","internalType":"uint256"},{"name":"data","type":"bytes","internalType":"bytes"}],"outputs":[],"stateMutability":"nonpayable"},{"type":"function","name":"setApprovalForAll","inputs":[{"name":"operator","type":"address","internalType":"address"},{"name":"approved","type":"bool","internalType":"bool"}],"outputs":[],"stateMutability":"nonpayable"},{"type":"function","name":"subscribe","inputs":[{"name":"tokenId","type":"uint256","internalType":"uint256"},{"name":"newSubscriber","type":"address","internalType":"address"},{"name":"data","type":"bytes","internalType":"bytes"}],"outputs":[],"stateMutability":"payable"},{"type":"function","name":"subscriber","inputs":[{"name":"tokenId","type":"uint256","internalType":"uint256"}],"outputs":[{"name":"subscriber","type":"address","internalType":"contract ISubscriber"}],"stateMutability":"view"},{"type":"function","name":"supportsInterface","inputs":[{"name":"interfaceId","type":"bytes4","internalType":"bytes4"}],"outputs":[{"name":"","type":"bool","internalType":"bool"}],"stateMutability":"view"},{"type":"function","name":"symbol","inputs":[],"outputs":[{"name":"","type":"string","internalType":"string"}],"stateMutability":"view"},{"type":"function","name":"tokenDescriptor","inputs":[],"outputs":[{"name":"","type":"address","internalType":"contract IPositionDescriptor"}],"stateMutability":"view"},{"type":"function","name":"tokenURI","inputs":[{"name":"tokenId","type":"uint256","internalType":"uint256"}],"outputs":[{"name":"","type":"string","internalType":"string"}],"stateMutability":"view"},{"type":"function","name":"transferFrom","inputs":[{"name":"from","type":"address","internalType":"address"},{"name":"to","type":"address","internalType":"address"},{"name":"id","type":"uint256","internalType":"uint256"}],"outputs":[],"stateMutability":"nonpayable"},{"type":"function","name":"unlockCallback","inputs":[{"name":"data","type":"bytes","internalType":"bytes"}],"outputs":[{"name":"","type":"bytes","internalType":"bytes"}],"stateMutability":"nonpayable"},{"type":"function","name":"unsubscribe","inputs":[{"name":"tokenId","type":"uint256","internalType":"uint256"}],"outputs":[],"stateMutability":"payable"},{"type":"function","name":"unsubscribeGasLimit","inputs":[],"outputs":[{"name":"","type":"uint256","internalType":"uint256"}],"stateMutability":"view"},{"type":"event","name":"Approval","inputs":[{"name":"owner","type":"address","indexed":true,"internalType":"address"},{"name":"spender","type":"address","indexed":true,"internalType":"address"},{"name":"id","type":"uint256","indexed":true,"internalType":"uint256"}],"anonymous":false},{"type":"event","name":"ApprovalForAll","inputs":[{"name":"owner","type":"address","indexed":true,"internalType":"address"},{"name":"operator","type":"address","indexed":true,"internalType":"address"},{"name":"approved","type":"bool","indexed":false,"internalType":"bool"}],"anonymous":false},{"type":"event","name":"Subscription","inputs":[{"name":"tokenId","type":"uint256","indexed":true,"internalType":"uint256"},{"name":"subscriber","type":"address","indexed":true,"internalType":"address"}],"anonymous":false},{"type":"event","name":"Transfer","inputs":[{"name":"from","type":"address","indexed":true,"internalType":"address"},{"name":"to","type":"address","indexed":true,"internalType":"address"},{"name":"id","type":"uint256","indexed":true,"internalType":"uint256"}],"anonymous":false},{"type":"event","name":"Unsubscription","inputs":[{"name":"tokenId","type":"uint256","indexed":true,"internalType":"uint256"},{"name":"subscriber","type":"address","indexed":true,"internalType":"address"}],"anonymous":false},{"type":"error","name":"AlreadySubscribed","inputs":[{"name":"tokenId","type":"uint256","internalType":"uint256"},{"name":"subscriber","type":"address","internalType":"address"}]},{"type":"error","name":"ContractLocked","inputs":[]},{"type":"error","name":"DeadlinePassed","inputs":[{"name":"deadline","type":"uint256","internalType":"uint256"}]},{"type":"error","name":"DeltaNotNegative","inputs":[{"name":"currency","type":"address","internalType":"Currency"}]},{"type":"error","name":"DeltaNotPositive","inputs":[{"name":"currency","type":"address","internalType":"Currency"}]},{"type":"error","name":"GasLimitTooLow","inputs":[]},{"type":"error","name":"InputLengthMismatch","inputs":[]},{"type":"error","name":"InvalidContractSignature","inputs":[]},{"type":"error","name":"InvalidSignature","inputs":[]},{"type":"error","name":"InvalidSignatureLength","inputs":[]},{"type":"error","name":"InvalidSigner","inputs":[]},{"type":"error","name":"MaximumAmountExceeded","inputs":[{"name":"maximumAmount","type":"uint128","internalType":"uint128"},{"name":"amountRequested","type":"uint128","internalType":"uint128"}]},{"type":"error","name":"MinimumAmountInsufficient","inputs":[{"name":"minimumAmount","type":"uint128","internalType":"uint128"},{"name":"amountReceived","type":"uint128","internalType":"uint128"}]},{"type":"error","name":"NoCodeSubscriber","inputs":[]},{"type":"error","name":"NoSelfPermit","inputs":[]},{"type":"error","name":"NonceAlreadyUsed","inputs":[]},{"type":"error","name":"NotApproved","inputs":[{"name":"caller","type":"address","internalType":"address"}]},{"type":"error","name":"NotPoolManager","inputs":[]},{"type":"error","name":"NotSubscribed","inputs":[]},{"type":"error","name":"SignatureDeadlineExpired","inputs":[]},{"type":"error","name":"Unauthorized","inputs":[]},{"type":"error","name":"UnsupportedAction","inputs":[{"name":"action","type":"uint256","internalType":"uint256"}]},{"type":"error","name":"Wrap__ModifyLiquidityNotificationReverted","inputs":[{"name":"subscriber","type":"address","internalType":"address"},{"name":"reason","type":"bytes","internalType":"bytes"}]},{"type":"error","name":"Wrap__SubscriptionReverted","inputs":[{"name":"subscriber","type":"address","internalType":"address"},{"name":"reason","type":"bytes","internalType":"bytes"}]},{"type":"error","name":"Wrap__TransferNotificationReverted","inputs":[{"name":"subscriber","type":"address","internalType":"address"},{"name":"reason","type":"bytes","internalType":"bytes"}]}],"bytecode":{"object":"0x61016080604052346104bb57608081613f6a803803809161002082856104bf565b8339810103126104bb578051906001600160a01b03821682036104bb576020810151906001600160a01b03821682036104bb576040810151606090910151926001600160a01b03841684036104bb5760405161007d6040826104bf565b6018815260208101907f556e697377617020763420506f736974696f6e73204e4654000000000000000082526040516100b76040826104bf565b600b81526a554e492d56342d504f534d60a81b602082015281516001600160401b0381116103cf575f54600181811c911680156104b1575b60208210146103b157601f811161044f575b50806020601f82116001146103ee575f916103e3575b508160011b915f199060031b1c1916175f555b8051906001600160401b0382116103cf5760015490600182811c921680156103c5575b60208310146103b15781601f849311610343575b50602090601f83116001146102dd575f926102d2575b50508160011b915f199060031b1c1916176001555b5190208060c0524660a05260405160208101917f8cad95687ba82c2ce50e74f7b754645e5117c3a5bec8151c0726d5857980a86683526040820152466060820152306080820152608081526101e260a0826104bf565b51902060805260e0526101005261012052600160085561014052604051613a8790816104e3823960805181611ce4015260a05181611cbe015260c05181611d33015260e051818181611144015281816116aa015281816117640152818161192f0152818161233601528181612a8701528181612b3a01528181612bb101528181612c9e01528181612cf20152818161349b0152818161353f015281816135af0152818161362e0152613759015261010051818181610da001526127ab01526101205181818161035d015281816108620152818161099901526135e0015261014051818181610ef201526115ca0152f35b015190505f80610177565b60015f9081528281209350601f198516905b81811061032b5750908460019594939210610313575b505050811b0160015561018c565b01515f1960f88460031b161c191690555f8080610305565b929360206001819287860151815501950193016102ef565b60015f529091507fb10e2d527612073b26eecdfd717e6a320cf44b4afac2b0732d9fcbe2b7fa0cf6601f840160051c810191602085106103a7575b90601f859493920160051c01905b8181106103995750610161565b5f815584935060010161038c565b909150819061037e565b634e487b7160e01b5f52602260045260245ffd5b91607f169161014d565b634e487b7160e01b5f52604160045260245ffd5b90508301515f610117565b5f8080528181209250601f198416905b8181106104375750908360019493921061041f575b5050811b015f5561012a565b8501515f1960f88460031b161c191690555f80610413565b9192602060018192868a0151815501940192016103fe565b5f80527f290decd9548b62a8d60345a988386fc84ba6bc95484008f6362f93160ef3e563601f830160051c810191602084106104a7575b601f0160051c01905b81811061049c5750610101565b5f815560010161048f565b9091508190610486565b90607f16906100ef565b5f80fd5b601f909101601f19168101906001600160401b038211908210176103cf5760405256fe60806040526004361015610011575f80fd5b5f3560e01c80622a3e3a1461027357806301ffc9a71461026e57806305c1ee201461026957806306fdde0314610264578063081812fc1461025f578063095ea7b31461025a5780630f5730f11461025557806312261ee71461025057806316a241311461024b5780631efeed331461024657806323b872dd146102415780632b67b5701461023c5780632b9261de146102375780633644e515146102325780633aea60f01461022d57806342842e0e146102285780634767565f146102235780634afe393c1461021e578063502e1a16146102195780635a9d7a68146102145780636352211e1461020f57806370a082311461020a57806375794a3c146102055780637ba03aad1461020057806386b6be7d146101fb57806389097a6a146101f657806391dd7346146101f157806395d89b41146101ec578063a22cb465146101e7578063ac9650d8146101e2578063ad0b27fb146101dd578063b88d4fde146101d8578063c87b56dd146101d3578063d737d0c7146101ce578063dc4c90d3146101c9578063dd46508f146101c4578063e985e9c5146101bf5763f7020405146101ba575f80fd5b611866565b611802565b6116d9565b611695565b611663565b611594565b611485565b61145e565b611380565b6112ee565b611239565b611111565b6110e7565b611063565b611031565b610fd1565b610f51565b610f21565b610edd565b610e94565b610df3565b610d89565b610cb0565b610bd9565b610ba8565b610a31565b61094e565b610937565b6108c3565b610891565b61084d565b61075a565b6106da565b6106a8565b6105c8565b61054f565b6104e1565b6102ff565b6001600160a01b0381160361028957565b5f80fd5b359061029882610278565b565b9181601f84011215610289578235916001600160401b038311610289576020838186019501011161028957565b805180835260209291819084018484015e5f828201840152601f01601f1916010190565b9060206102fc9281815201906102c7565b90565b60603660031901126102895760043561031781610278565b602435906001600160401b03821161028957813603916060600319840112610289576044356001600160401b0381116102895761035890369060040161029a565b6060947f00000000000000000000000000000000000000000000000000000000000000006001600160a01b031693909290843b1561028957604051632a2d80d160e01b81526001600160a01b039096166004808801919091526060602488015260c4870194908201359060221901811215610289578101602460048201359101946001600160401b038211610289578160071b360386136102895760606064890152819052869460e48601949392915f5b8181106104a7575050506104585f96948694889460448561044061043060248b990161028d565b6001600160a01b03166084890152565b013560a4860152848303600319016044860152611a85565b03925af1908161048d575b506104845750610480610474611aee565b604051918291826102eb565b0390f35b61048090610474565b8061049b5f6104a1936105a7565b80610569565b5f610463565b91965091929394608080826104be6001948b611a26565b019701910191889695949392610409565b6001600160e01b031981160361028957565b34610289576020366003190112610289576020600435610500816104cf565b63ffffffff60e01b166301ffc9a760e01b811490811561053e575b811561052d575b506040519015158152f35b635b5e139f60e01b1490505f610522565b6380ac58cd60e01b8114915061051b565b60203660031901126102895761056760043533611fd1565b005b5f91031261028957565b634e487b7160e01b5f52604160045260245ffd5b60a081019081106001600160401b038211176105a257604052565b610573565b90601f801991011681019081106001600160401b038211176105a257604052565b34610289575f366003190112610289576040515f80548060011c906001811690811561069e575b60208310821461068a5782855260208501919081156106715750600114610621575b61048084610474818603826105a7565b5f8080529250907f290decd9548b62a8d60345a988386fc84ba6bc95484008f6362f93160ef3e5635b81841061065d5750500161047482610611565b80548484015260209093019260010161064a565b60ff191682525090151560051b01905061047482610611565b634e487b7160e01b5f52602260045260245ffd5b91607f16916105ef565b34610289576020366003190112610289576004355f526004602052602060018060a01b0360405f205416604051908152f35b34610289576040366003190112610289576004356106f781610278565b6024355f818152600260205260409020546001600160a01b0316913383141580610737575b6107295761056792612017565b6282b42960e81b5f5260045ffd5b505f83815260056020908152604080832033845290915290205460ff161561071c565b60a03660031901126102895760043561077281610278565b60243560443591606435926084356001600160401b0381116102895761079c90369060040161029a565b9482421161083e5761083385610839936105679861082d885f80998682526002602052818960018060a01b036040832054169c8d9981604051977f49ecf333e5b8c95c40fdafc95c1ad136e8914a8fb55e9dc8bb01eaa83a2df9ad8952602089019060018060a01b031681526040890192835260608901948552608089019687528160a08a20995252525252612071565b916120f6565b82611fd1565b612017565b635a9165ff60e01b5f5260045ffd5b34610289575f366003190112610289576040517f00000000000000000000000000000000000000000000000000000000000000006001600160a01b03168152602090f35b34610289576020366003190112610289576004355f526007602052602060018060a01b0360405f205416604051908152f35b346102895760203660031901126102895760206108fa6004356108e581611e28565b919082851c60020b9260081c60020b9161228a565b6001600160801b0360405191168152f35b60609060031901126102895760043561092381610278565b9060243561093081610278565b9060443590565b34610289576105676109483661090b565b91611b1d565b6101003660031901126102895760043561096781610278565b60c03660231901126102895760e4356001600160401b0381116102895761099290369060040161029a565b60609290917f00000000000000000000000000000000000000000000000000000000000000006001600160a01b0316803b1561028957610458935f8094604051968795869485936302b67b5760e41b855260018060a01b031660048501526109fc602485016119ba565b60a435610a0881610278565b6001600160a01b031660a485015260c43560c485015261010060e4850152610104840191611a85565b606036600319011261028957602435600435610a4c82610278565b6044356001600160401b03811161028957610a6b90369060040161029a565b610a7883949294336124fa565b15610b95575f8381526007602052604090206001600160a01b0390610aa5905b546001600160a01b031690565b1680610b7257505f83815260096020526040902080546001179055610b4290610b3e905f8581526007602052604090206001600160a01b03851696610b3891610b0a9089905b80546001600160a01b0319166001600160a01b03909216919091179055565b610b2a6040519384926346abfb5960e11b60208501528960248501611ca4565b03601f1981018352826105a7565b83612590565b1590565b610b6d57507f9709492381f90bdc5938bb4e3b8e35b7e0eac8af058619e27191c5a40ce79fa95f80a3005b6125b8565b6312fdec5f60e11b5f5260048490526001600160a01b031660245260445ffd5b5ffd5b6301952d1b60e31b5f523360045260245ffd5b34610289575f366003190112610289576020610bc2611cbb565b604051908152f35b60443590811515820361028957565b60c036600319011261028957600435610bf181610278565b602435610bfd81610278565b610c05610bca565b906064359260843560a4356001600160401b03811161028957610c2c90369060040161029a565b86929192421161083e5783610cab936108339261082d885f6105679c8189818f81604051977f6673cb397ee2a50b6b8401653d3638b4ac8b3db9c28aa6870ffceb7574ec2f768952602089019060018060a01b03168152600160408a019316835260608901948552608089019687528160a08a20995252525252612071565b612657565b3461028957610cbe3661090b565b610ccb8183859495611b1d565b823b15918215610cdf575b61056783611d8d565b604051630a85bd0160e11b81523360048201526001600160a01b0391821660248201526044810192909252608060648301525f60848301819052919360209350849260a4928492165af18015610d8457610567915f91610d55575b506001600160e01b031916630a85bd0160e11b145f80610cd6565b610d77915060203d602011610d7d575b610d6f81836105a7565b810190611d78565b5f610d3a565b503d610d65565b611aa5565b34610289575f3660031901126102895760206040517f00000000000000000000000000000000000000000000000000000000000000008152f35b9181601f84011215610289578235916001600160401b038311610289576020808501948460051b01011161028957565b6040366003190112610289576004356001600160401b03811161028957610e1e90369060040161029a565b6024356001600160401b03811161028957610e3d903690600401610dc3565b915f80516020613a328339815191525c6001600160a01b0316610e8557610e7393335f80516020613a328339815191525d6126da565b5f5f80516020613a328339815191525d005b6337affdbf60e11b5f5260045ffd5b3461028957604036600319011261028957600435610eb181610278565b6024359060018060a01b03165f52600660205260405f20905f52602052602060405f2054604051908152f35b34610289575f366003190112610289576040517f00000000000000000000000000000000000000000000000000000000000000006001600160a01b03168152602090f35b34610289576020366003190112610289576020610f3f600435611e05565b6040516001600160a01b039091168152f35b3461028957602036600319011261028957600435610f6e81610278565b6001600160a01b03168015610f9d575f52600360205261048060405f2054604051918291829190602083019252565b60405162461bcd60e51b815260206004820152600c60248201526b5a45524f5f4144445245535360a01b6044820152606490fd5b34610289575f366003190112610289576020600854604051908152f35b80516001600160a01b03908116835260208083015182169084015260408083015162ffffff169084015260608083015160020b9084015260809182015116910152565b346102895760203660031901126102895760c061104f600435611e28565b61105c6040518093610fee565b60a0820152f35b346102895760203660031901126102895760043566ffffffffffffff198116809103610289575f908152600a60209081526040918290208054600182015460029283015485516001600160a01b0393841681528383169581019590955260a082811c62ffffff169686019690965260b89190911c90920b6060840152166080820152f35b34610289576020366003190112610289576004355f526009602052602060405f2054604051908152f35b34610289576020366003190112610289576004356001600160401b0381116102895761114190369060040161029a565b907f00000000000000000000000000000000000000000000000000000000000000006001600160a01b0316330361122a5760408135189063ffffffff60408201351663ffffffe0601f8201169260608401602084013518179282019260608401359483641fffffffe08760051b16805f905b888183106111fb57905060809291500101910110176111ee576060608063ffffffff6111e39616940192016126da565b610480610474611ada565b633b99b53d5f526004601cfd5b8294509263ffffffe0601f60808060209687969801013599848b1817998d0101350116010192018692916111b3565b63570c108560e11b5f5260045ffd5b34610289575f366003190112610289576040515f6001548060011c90600181169081156112e4575b60208310821461068a57828552602085019190811561067157506001146112925761048084610474818603826105a7565b60015f9081529250907fb10e2d527612073b26eecdfd717e6a320cf44b4afac2b0732d9fcbe2b7fa0cf65b8184106112d05750500161047482610611565b8054848401526020909301926001016112bd565b91607f1691611261565b346102895760403660031901126102895760043561130b81610278565b6024358015158103610289576105679133612657565b602081016020825282518091526040820191602060408360051b8301019401925f915b83831061135357505050505090565b9091929394602080611371600193603f1986820301875289516102c7565b97019301930191939290611344565b6020366003190112610289576004356001600160401b038111610289576113ab903690600401610dc3565b906113b582611edc565b916113c360405193846105a7565b808352601f196113d282611edc565b015f5b81811061144d5750505f5b8181106113f557604051806104808682611321565b5f80611402838587611f07565b9061141260405180938193611f4d565b0390305af461141f611aee565b901561144557906001916114338287611f5a565b5261143e8186611f5a565b50016113e0565b602081519101fd5b8060606020809388010152016113d5565b60203660031901126102895760043561147781336124fa565b15610b95576105679061272a565b34610289576080366003190112610289576004356114a281610278565b602435906114af82610278565b604435916064356001600160401b038111610289576114d290369060040161029a565b9190936114e0818386611b1d565b813b159384156114f4575b61056785611d8d565b602094505f9061153a60405197889687958694630a85bd0160e11b865233600487015260018060a01b031660248601526044850152608060648501526084840191611a85565b03926001600160a01b03165af18015610d8457610567915f91611575575b506001600160e01b031916630a85bd0160e11b145f8080806114eb565b61158e915060203d602011610d7d57610d6f81836105a7565b5f611558565b346102895760203660031901126102895760043560405163e9dc637560e01b815230600482015260248101919091525f816044817f00000000000000000000000000000000000000000000000000000000000000006001600160a01b03165afa8015610d84575f90611611575b61048090604051918291826102eb565b503d805f833e61162181836105a7565b810190602081830312610289578051906001600160401b038211610289570181601f82011215610289576104809181602061165e93519101611f6e565b611601565b34610289575f366003190112610289576040516001600160a01b035f80516020613a328339815191525c168152602090f35b34610289575f366003190112610289576040517f00000000000000000000000000000000000000000000000000000000000000006001600160a01b03168152602090f35b6040366003190112610289576004356001600160401b0381116102895761170490369060040161029a565b6024355f80516020613a328339815191525c6001600160a01b0316610e8557335f80516020613a328339815191525d8042116117f0576040516348c8949160e01b8152602060048201525f818061175f602482018789611a85565b0381837f00000000000000000000000000000000000000000000000000000000000000006001600160a01b03165af18015610d84576117a1575b6105676126c8565b3d805f833e6117b081836105a7565b810190602081830312610289578051906001600160401b03821161028957019080601f830112156102895781516117e992602001611f6e565b5080611799565b63bfb22adf60e01b5f5260045260245ffd5b3461028957604036600319011261028957602060ff61185a60043561182681610278565b6024359061183382610278565b60018060a01b03165f526005845260405f209060018060a01b03165f5260205260405f2090565b54166040519015158152f35b366003190160c081126102895760a0136102895760a43561188681610278565b60405163313b65df60e11b8152906004356118a081610278565b6001600160a01b031660048301526024356118ba81610278565b6001600160a01b0316602483015262ffffff6044356118d881611fc4565b1660448301526064356118ea81611fa4565b60020b606483015261191160843561190181610278565b6001600160a01b03166084840152565b6001600160a01b0390811660a4830152602090829060c49082905f907f0000000000000000000000000000000000000000000000000000000000000000165af18015610d8457610480915f91611978575b5060405160029190910b81529081906020820190565b61199a915060203d6020116119a0575b61199281836105a7565b810190611faf565b5f611962565b503d611988565b359065ffffffffffff8216820361028957565b6024356119c681610278565b6001600160a01b031681526044356119dd81610278565b6001600160a01b0316602082015260643565ffffffffffff81169081900361028957604082015260843565ffffffffffff811681036102895765ffffffffffff60609116910152565b65ffffffffffff611a7f606080938035611a3f81610278565b6001600160a01b031686526020810135611a5881610278565b6001600160a01b0316602087015283611a73604083016119a7565b166040870152016119a7565b16910152565b908060209392818452848401375f828201840152601f01601f1916010190565b6040513d5f823e3d90fd5b604051906102986080836105a7565b6001600160401b0381116105a257601f01601f191660200190565b60405190611ae96020836105a7565b5f8252565b3d15611b18573d90611aff82611abf565b91611b0d60405193846105a7565b82523d5f602084013e565b606090565b82611b42611b36610a98835f52600260205260405f2090565b6001600160a01b031690565b6001600160a01b03831690611b589082146123a7565b6001600160a01b03841690611b6e8215156123e0565b8033148015611c68575b8015611c43575b611b8890612420565b6001600160a01b038481165f90815260036020908152604080832080545f190190559288168252828220805460010190558582526002905220611bcc908690610aeb565b611bf1611be1845f52600460205260405f2090565b80546001600160a01b0319169055565b7fddf252ad1be2c89b69c2b068fc378daa952ba7f163c4a11628f55a4df523b3ef5f80a4611c31611c2a845f52600960205260405f2090565b5460ff1690565b611c3a57505050565b6102989261245d565b50611b88611c5f611b36610a98865f52600460205260405f2090565b33149050611b7f565b50611c9f611c2a33611c8a8760018060a01b03165f52600560205260405f2090565b9060018060a01b03165f5260205260405f2090565b611b78565b6040906102fc949281528160208201520191611a85565b467f000000000000000000000000000000000000000000000000000000000000000003611d06577f000000000000000000000000000000000000000000000000000000000000000090565b60405160208101907f8cad95687ba82c2ce50e74f7b754645e5117c3a5bec8151c0726d5857980a86682527f0000000000000000000000000000000000000000000000000000000000000000604082015246606082015230608082015260808152611d7260a0826105a7565b51902090565b9081602091031261028957516102fc816104cf565b15611d9457565b60405162461bcd60e51b815260206004820152601060248201526f155394d0519157d49150d2541251539560821b6044820152606490fd5b15611dd357565b60405162461bcd60e51b815260206004820152600a6024820152691393d517d3525395115160b21b6044820152606490fd5b5f908152600260205260409020546001600160a01b031690610298821515611dcc565b5f6080604051611e3781610587565b82815282602082015282604082015282606082015201525f52600960205260405f20548066ffffffffffffff19165f52600a60205260405f20611ed9611ec9600260405193611e8585610587565b80546001600160a01b0390811686526001820154908116602087015262ffffff60a082901c16604087015260b81c60020b606086015201546001600160a01b031690565b6001600160a01b03166080830152565b91565b6001600160401b0381116105a25760051b60200190565b634e487b7160e01b5f52603260045260245ffd5b9190811015611f485760051b81013590601e19813603018212156102895701908135916001600160401b038311610289576020018236038113610289579190565b611ef3565b908092918237015f815290565b8051821015611f485760209160051b010190565b929192611f7a82611abf565b91611f8860405193846105a7565b829481845281830111610289578281602093845f96015e010152565b8060020b0361028957565b9081602091031261028957516102fc81611fa4565b62ffffff81160361028957565b90600160ff82161b9160018060a01b03165f52600660205260405f209060081c5f5260205260405f2081815418809155161561200957565b623f613760e71b5f5260045ffd5b5f83815260046020526040902080546001600160a01b0319166001600160a01b038416179055906001600160a01b0390811691167f8c5be1e5ebec7d5bd14f71427d1e84f3dd0314c0f7b2291e5b200ac8c7c3b9255f80a4565b9061207a611cbb565b916040519261190160f01b8452600284015260228301525f604060428420938281528260208201520152565b9190826040910312610289576020823592013590565b634e487b7160e01b5f52601160045260245ffd5b60ff601b9116019060ff82116120e257565b6120bc565b9060401015611f485760400190565b90833b61220157604181036121b557906020926121678361213f61213961212b6121235f988801886120a6565b9490976120e7565b356001600160f81b03191690565b60f81c90565b935b604051948594859094939260ff6060936080840197845216602083015260408201520152565b838052039060015afa15610d84575f516001600160a01b03169081156121a6576001600160a01b03160361219757565b632057875960e21b5f5260045ffd5b638baa579f60e01b5f5260045ffd5b90604082036121f2576020926121d2825f946121679401906120a6565b9092906001600160ff1b038116906121ec9060ff1c6120d0565b93612141565b634be6321b60e01b5f5260045ffd5b90926122279360209360405195869485938493630b135d3f60e11b855260048501611ca4565b03916001600160a01b03165afa908115610d84575f9161226b575b506001600160e01b0319166374eca2c160e11b0161225c57565b632c19a72f60e21b5f5260045ffd5b612284915060203d602011610d7d57610d6f81836105a7565b5f612242565b929160a092604051946026860152600685015260038401523083525f603a600c8501209381604082015281602082015252206040516020810191825260066040820152604081526122dc6060826105a7565b519020600681018091116120e257604080516020818101948552918101929092526123329290916123108160608101610b2a565b51902060405180938192631e2eaeaf60e01b8352600483019190602083019252565b03817f00000000000000000000000000000000000000000000000000000000000000006001600160a01b03165afa8015610d84576001600160801b03915f9161237a57501690565b61239c915060203d6020116123a0575b61239481836105a7565b81019061282e565b1690565b503d61238a565b156123ae57565b60405162461bcd60e51b815260206004820152600a60248201526957524f4e475f46524f4d60b01b6044820152606490fd5b156123e757565b60405162461bcd60e51b81526020600482015260116024820152701253959053125117d49150d25412515395607a1b6044820152606490fd5b1561242757565b60405162461bcd60e51b815260206004820152600e60248201526d1393d517d055551213d49256915160921b6044820152606490fd5b6124bd9192815f52600760205260018060a01b0360405f205416936040519263876fda0760e01b6020850152602484015260018060a01b0316604483015260018060a01b03166064820152606481526124b76084826105a7565b82612590565b156124c55750565b3d6040519163263bc7b560e01b8352600483015260406024830152806044830152805f606484013e601f801991011660640190fd5b6001600160a01b0361250b83611e05565b6001600160a01b038316911681149290831561256f575b50821561252e57505090565b60ff925061256a91906001600160a01b039061254990611e05565b165f52600560205260405f209060018060a01b03165f5260205260405f2090565b541690565b5f828152600460205260408120546001600160a01b03169091149350612522565b803b156125a957815f92918360208194519301915af190565b637c402b2160e01b5f5260045ffd5b3d604051916363b23e9f60e01b8352600483015260406024830152806044830152805f606484013e601f801991011660640190fd5b3d60405191632c4b17e760e21b8352600483015260406024830152806044830152805f606484013e601f801991011660640190fd5b3d60405191638549db5960e01b8352600483015260406024830152806044830152805f606484013e601f801991011660640190fd5b6001600160a01b039081165f818152600560209081526040808320948616835293815292902090927f17307eab39ab6107e8899845ad3d59bd9653f200f220920489ca2b5937696c319291805460ff191695151560ff81169690961790556040519485526001600160a01b031693a3565b5f5f80516020613a328339815191525d565b9092919382840361271b575f5b848110156127135760019061270d81850161270383888b611f07565b913560f81c61284c565b016126e7565b509350505050565b63aaad13f760e01b5f5260045ffd5b5f8181526007602052604090206001600160a01b039061274990610a98565b1690811561281f575f818152600960205260409020805460ff1916905561277b611be1825f52600760205260405f2090565b813b6127a8575b7fa0ebb1de82db929a9153472f37d3a66dbede4436258311ad0f52a35a2c91d1505f80a3565b5a7f000000000000000000000000000000000000000000000000000000000000000080911061281a57823b1561028957604051632bd1774560e21b815260048101839052905f908290602490829084908890f1612806575b50612782565b8061049b5f612814936105a7565b5f612800565b61283d565b63046fcd8560e31b5f5260045ffd5b90816020910312610289575190565b6376a1e1d360e11b5f5260045ffd5b90919060098110156129035780612877575061286b90610298926132bb565b9493909392919261334f565b60018103612899575061288d90610298926132bb565b949390939291926132fd565b600281036128c857506128b26128c29161029893612f78565b9890979691959295949394612a25565b95613118565b91600383146128eb575050610b9291505b635cda29d760e01b5f52600452602490565b6102989250906128fa91612ddf565b93929092612e1b565b90506011810361291e57506102989060208101359035612db4565b60158103612950575061294a612941610298928035916040602083013592013590565b92909192612a25565b91612d99565b6009810361298e5750612982612988612976610298938035916040602083013592013590565b93829493929193612c32565b92612c4d565b91612c72565b601281036129ca57506129c46129be6129b4610298938035916040602083013592013590565b9282949291612a25565b92612b9a565b91612bae565b601781036129dd57506102989035612b33565b601881036129f657506102989060208101359035612a75565b9060198214612a0a5750610b9291506128d9565b6102989150803590612a1f9060200135612a25565b90612a57565b6001600160a01b03811660018103612a4b5750505f80516020613a328339815191525c90565b6002036102fc57503090565b90612a618261339d565b9081612a6c57505050565b61029892613403565b612a7e81613494565b918211612b09577f00000000000000000000000000000000000000000000000000000000000000006001600160a01b031691823b156102895760405163203c2d1360e21b81526001600160a01b0390921660048301526024820152905f908290604490829084905af18015610d8457612af45750565b80612b005f80936105a7565b80031261028957565b90610298915f80516020613a328339815191525c90612bae565b600160ff1b81146120e2575f0390565b612b5e81307f00000000000000000000000000000000000000000000000000000000000000006134eb565b5f80516020613a328339815191525c905f811215612b8457906129886102989392612b23565b905f8213612b9157505050565b61029892612bae565b9081612baa576102fc9150613494565b5090565b907f00000000000000000000000000000000000000000000000000000000000000006001600160a01b0316803b1561028957604051630b0d9c0960e01b81526001600160a01b03938416600482015291909216602482015260448101929092525f908290606490829084905af18015610d8457612c285750565b5f610298916105a7565b15612c49575f80516020613a328339815191525c90565b3090565b90600160ff1b8203612c63576102fc915061339d565b81612baa576102fc9150613538565b91906001600160a01b038316612cf05750604051630476982d60e21b81529150602090829060049082907f00000000000000000000000000000000000000000000000000000000000000006001600160a01b03165af18015610d8457612cd55750565b612ced9060203d6020116123a05761239481836105a7565b50565b7f00000000000000000000000000000000000000000000000000000000000000006001600160a01b031690813b1561028957604051632961046560e21b81526001600160a01b0385166004820152925f8460248183875af1918215610d84575f95602095612d6394612d85575b50613595565b600460405180948193630476982d60e21b83525af18015610d8457612cd55750565b8061049b89612d93936105a7565b5f612d5d565b91612dab61029893826129c482613494565b6129c482613494565b9061029891612dd65f80516020613a328339815191525c918261298882613538565b61298882613538565b919082359260208101359260408201359263ffffffff60608401351683019063ffffffff823516936020808401938601019101106111ee579190565b935f80516020613a328339815191525c612e3586826124fa565b15612f58575090849291612e4884611e28565b9590916001600160801b03612e6b8860201c60020b8960081c60020b868a61228a565b1691865f5260096020525f6040812055865f526002602052865f60018060a01b03604082205416612e9d811515611dcc565b80825260036020526040822082198154019055612ec5611be1845f52600260205260405f2090565b612eda611be1845f52600460205260405f2090565b7fddf252ad1be2c89b69c2b068fc378daa952ba7f163c4a11628f55a4df523b3ef8280a482612f1e575b5050505050505060ff16612f155750565b6102989061272a565b612f4c96612f4794612f3a612f35612f419661368d565b612b23565b908a613707565b906137e0565b613814565b815f8080808080612f04565b6301952d1b60e31b5f9081526001600160a01b0391909116600452602490fd5b9091819260a08301359260c08101359260e08201359261010083013592610120810135926101408201359263ffffffff6101608401351683019063ffffffff823516936020808401938601019101106111ee579190565b91908260a091031261028957604051612fe781610587565b60808082948035612ff781610278565b8452602081013561300781610278565b6020850152604081013561301a81611fc4565b6040850152606081013561302d81611fa4565b606085015201359161303e83610278565b0152565b6002608061029893613074813561305881610278565b85546001600160a01b0319166001600160a01b03909116178555565b600184016130a5602083013561308981610278565b82546001600160a01b0319166001600160a01b03909116178255565b60408201356130b381611fc4565b815460608401356130c381611fa4565b60b81b62ffffff60b81b169162ffffff60a01b9060a01b169065ffffffffffff60a01b1916171790550135916130f883610278565b0180546001600160a01b0319166001600160a01b03909216919091179055565b909194969297939597600854926001840160085560018060a01b038a16996131418b15156123e0565b5f858152600260205260409020546001600160a01b0316613285576132006132549861324e93876102989e6131a68661318d6132469860018060a01b03165f52600360205260405f2090565b80546001019055610aeb845f52600260205260405f2090565b5f7fddf252ad1be2c89b69c2b068fc378daa952ba7f163c4a11628f55a4df523b3ef8180a46131d53688612fcf565b63ffffff0066ffffff000000009160a066ffffffffffffff199120169260081b169260201b16171790565b9283613214875f52600960205260405f2090565b5566ffffffffffffff1984165f818152600a6020526040902060010154869060b81c60020b1561325a575b505061368d565b923690612fcf565b90613707565b5061389e565b61327961327e9266ffffffffffffff19165f52600a60205260405f2090565b613042565b5f8561323f565b60405162461bcd60e51b815260206004820152600e60248201526d1053149150511657d3525395115160921b6044820152606490fd5b909181359260208301359260408101359260608201359263ffffffff60808401351683019063ffffffff823516936020808401938601019101106111ee579190565b90959495939192935f80516020613a328339815191525c61331e83826124fa565b15612f58575095612f479282612f356102989899613349613341612f4197611e28565b93909261368d565b91613707565b90959495939192935f80516020613a328339815191525c61337083826124fa565b15612f5857509561339892826133496102989899613390612f4196611e28565b92909161368d565b61389e565b6001600160a01b0381166133b057504790565b6040516370a0823160e01b815230600482015290602090829060249082906001600160a01b03165afa908115610d84575f916133ea575090565b6102fc915060203d6020116123a05761239481836105a7565b9091906001600160a01b03811661343057505f80808061342494865af11590565b61342b5750565b612622565b6040805163a9059cbb60e01b81526001600160a01b039094166004850152602484019290925291905f9060208260448582885af13d15601f3d116001855114161716928281528260208201520152156134865750565b6001600160a01b03166125ed565b6134bf81307f00000000000000000000000000000000000000000000000000000000000000006134eb565b905f82126134cb575090565b634c085bf160e01b5f9081526001600160a01b0391909116600452602490fd5b6001600160a01b039182165f9081529282166020908152604093849020935163789add5560e11b815260048101949094529183916024918391165afa908115610d84575f916133ea575090565b61356381307f00000000000000000000000000000000000000000000000000000000000000006134eb565b905f821361357557506102fc90612b23565b63019a8d9360e51b5f9081526001600160a01b0391909116600452602490fd5b9091906001600160a01b03831630036135dd5761029892507f00000000000000000000000000000000000000000000000000000000000000006001600160a01b031690613403565b907f00000000000000000000000000000000000000000000000000000000000000006001600160a01b0316803b1561028957604051631b63c28b60e11b81526001600160a01b0394851660048201527f00000000000000000000000000000000000000000000000000000000000000008516602482015291841660448301529190921660648301525f908290608490829084905af18015610d845761367f5750565b8061049b5f610298936105a7565b905f821261369757565b6393dafdf160e01b5f5260045ffd5b9190826040910312610289576020825192015190565b60606102fc95936136d08361014095610fee565b805160020b60a0840152602081015160020b60c0840152604081015160e08401520151610100820152816101208201520191611a85565b959394604091613754613718611ab0565b60088a901c60020b81529260208a811c60020b90850152858585015286606085015284519889948594632d35e7ed60e11b8652600486016136bc565b03815f7f00000000000000000000000000000000000000000000000000000000000000006001600160a01b03165af1908115610d84575f945f926137ac575b5081949560ff166137a357505050565b61029892613987565b9094506137d1915060403d6040116137d9575b6137c981836105a7565b8101906136a6565b90935f613793565b503d6137bf565b613803906137f58360801d8260801d03613a0d565b92600f0b90600f0b03613a0d565b6001600160801b03169060801b1790565b929190926001600160801b038160801d948161382f87613a1b565b9116918291161061388c57506001600160801b03929350600f0b908261385483613a1b565b91169283911610613863575050565b906138756001600160801b0392613a1b565b90630940b79160e11b5f526004521660245260445ffd5b6001600160801b039061387586613a1b565b908160801d600f0b91600f0b915f811280613964575b61392d5750505f811280613908575b6138cb575050565b906138e76138db610b9293612b23565b6001600160801b031690565b63031e30ad60e41b5f526001600160801b0391821660045216602452604490565b506001600160801b038061391b83612b23565b16166001600160801b038316106138c3565b906001600160801b03613942610b9293612b23565b63031e30ad60e41b5f526001600160801b039283166004521616602452604490565b506001600160801b0361397682612b23565b166001600160801b038316106138b4565b6139d19192815f52600760205260018060a01b0360405f205416936040519263d8865c2760e01b6020850152602484015260448301526064820152606481526124b76084826105a7565b156139d95750565b3d60405191622ad16d60e61b8352600483015260406024830152806044830152805f606484013e601f801991011660640190fd5b9081600f0b91820361369757565b5f81600f0b12613697576001600160801b03169056fe0aedd6bde10e3aa2adec092b02a3e3e805795516cda41f27aa145b8f300af87aa264697066735822122010778820cea23133f0ebc36dff7a296d632f1032ac64bf2f4e715b396d48f34164736f6c634300081a0033","linkReferences":{}},"methodIdentifiers":{"DOMAIN_SEPARATOR()":"3644e515","approve(address,uint256)":"095ea7b3","balanceOf(address)":"70a08231","getApproved(uint256)":"081812fc","getPoolAndPositionInfo(uint256)":"7ba03aad","getPositionLiquidity(uint256)":"1efeed33","initializePool((address,address,uint24,int24,address),uint160)":"f7020405","isApprovedForAll(address,address)":"e985e9c5","modifyLiquidities(bytes,uint256)":"dd46508f","modifyLiquiditiesWithoutUnlock(bytes,bytes[])":"4afe393c","msgSender()":"d737d0c7","multicall(bytes[])":"ac9650d8","name()":"06fdde03","nextTokenId()":"75794a3c","nonces(address,uint256)":"502e1a16","ownerOf(uint256)":"6352211e","permit(address,((address,uint160,uint48,uint48),address,uint256),bytes)":"2b67b570","permit(address,uint256,uint256,uint256,bytes)":"0f5730f1","permit2()":"12261ee7","permitBatch(address,((address,uint160,uint48,uint48)[],address,uint256),bytes)":"002a3e3a","permitForAll(address,address,bool,uint256,uint256,bytes)":"3aea60f0","poolKeys(bytes25)":"86b6be7d","poolManager()":"dc4c90d3","positionInfo(uint256)":"89097a6a","revokeNonce(uint256)":"05c1ee20","safeTransferFrom(address,address,uint256)":"42842e0e","safeTransferFrom(address,address,uint256,bytes)":"b88d4fde","setApprovalForAll(address,bool)":"a22cb465","subscribe(uint256,address,bytes)":"2b9261de","subscriber(uint256)":"16a24131","supportsInterface(bytes4)":"01ffc9a7","symbol()":"95d89b41","tokenDescriptor()":"5a9d7a68","tokenURI(uint256)":"c87b56dd","transferFrom(address,address,uint256)":"23b872dd","unlockCallback(bytes)":"91dd7346","unsubscribe(uint256)":"ad0b27fb","unsubscribeGasLimit()":"4767565f"},"id":100}