{"abi":[{"type":"function","name":"allowance","inputs":[{"name":"owner","type":"address","internalType":"address"},{"name":"spender","type":"address","internalType":"address"},{"name":"id","type":"uint256","internalType":"uint256"}],"outputs":[{"name":"amount","type":"uint256","internalType":"uint256"}],"stateMutability":"view"},{"type":"function","name":"approve","inputs":[{"name":"spender","type":"address","internalType":"address"},{"name":"id","type":"uint256","internalType":"uint256"},{"name":"amount","type":"uint256","internalType":"uint256"}],"outputs":[{"name":"","type":"bool","internalType":"bool"}],"stateMutability":"nonpayable"},{"type":"function","name":"balanceOf","inputs":[{"name":"owner","type":"address","internalType":"address"},{"name":"id","type":"uint256","internalType":"uint256"}],"outputs":[{"name":"balance","type":"uint256","internalType":"uint256"}],"stateMutability":"view"},{"type":"function","name":"burn","inputs":[{"name":"from","type":"address","internalType":"address"},{"name":"id","type":"uint256","internalType":"uint256"},{"name":"amount","type":"uint256","internalType":"uint256"}],"outputs":[],"stateMutability":"nonpayable"},{"type":"function","name":"clear","inputs":[{"name":"currency","type":"address","internalType":"Currency"},{"name":"amount","type":"uint256","internalType":"uint256"}],"outputs":[],"stateMutability":"nonpayable"},{"type":"function","name":"collectProtocolFees","inputs":[{"name":"recipient","type":"address","internalType":"address"},{"name":"currency","type":"address","internalType":"Currency"},{"name":"amount","type":"uint256","internalType":"uint256"}],"outputs":[{"name":"amountCollected","type":"uint256","internalType":"uint256"}],"stateMutability":"nonpayable"},{"type":"function","name":"donate","inputs":[{"name":"key","type":"tuple","internalType":"struct PoolKey","components":[{"name":"currency0","type":"address","internalType":"Currency"},{"name":"currency1","type":"address","internalType":"Currency"},{"name":"fee","type":"uint24","internalType":"uint24"},{"name":"tickSpacing","type":"int24","internalType":"int24"},{"name":"hooks","type":"address","internalType":"contract IHooks"}]},{"name":"amount0","type":"uint256","internalType":"uint256"},{"name":"amount1","type":"uint256","internalType":"uint256"},{"name":"hookData","type":"bytes","internalType":"bytes"}],"outputs":[{"name":"delta","type":"int256","internalType":"BalanceDelta"}],"stateMutability":"nonpayable"},{"type":"function","name":"extsload","inputs":[{"name":"slot","type":"bytes32","internalType":"bytes32"}],"outputs":[{"name":"","type":"bytes32","internalType":"bytes32"}],"stateMutability":"view"},{"type":"function","name":"extsload","inputs":[{"name":"startSlot","type":"bytes32","internalType":"bytes32"},{"name":"nSlots","type":"uint256","internalType":"uint256"}],"outputs":[{"name":"","type":"bytes32[]","internalType":"bytes32[]"}],"stateMutability":"view"},{"type":"function","name":"extsload","inputs":[{"name":"slots","type":"bytes32[]","internalType":"bytes32[]"}],"outputs":[{"name":"","type":"bytes32[]","internalType":"bytes32[]"}],"stateMutability":"view"},{"type":"function","name":"exttload","inputs":[{"name":"slots","type":"bytes32[]","internalType":"bytes32[]"}],"outputs":[{"name":"","type":"bytes32[]","internalType":"bytes32[]"}],"stateMutability":"view"},{"type":"function","name":"exttload","inputs":[{"name":"slot","type":"bytes32","internalType":"bytes32"}],"outputs":[{"name":"","type":"bytes32","internalType":"bytes32"}],"stateMutability":"view"},{"type":"function","name":"initialize","inputs":[{"name":"key","type":"tuple","internalType":"struct PoolKey","components":[{"name":"currency0","type":"address","internalType":"Currency"},{"name":"currency1","type":"address","internalType":"Currency"},{"name":"fee","type":"uint24","internalType":"uint24"},{"name":"tickSpacing","type":"int24","internalType":"int24"},{"name":"hooks","type":"address","internalType":"contract IHooks"}]},{"name":"sqrtPriceX96","type":"uint160","internalType":"uint160"}],"outputs":[{"name":"tick","type":"int24","internalType":"int24"}],"stateMutability":"nonpayable"},{"type":"function","name":"isOperator","inputs":[{"name":"owner","type":"address","internalType":"address"},{"name":"operator","type":"address","internalType":"address"}],"outputs":[{"name":"isOperator","type":"bool","internalType":"bool"}],"stateMutability":"view"},{"type":"function","name":"mint","inputs":[{"name":"to","type":"address","internalType":"address"},{"name":"id","type":"uint256","internalType":"uint256"},{"name":"amount","type":"uint256","internalType":"uint256"}],"outputs":[],"stateMutability":"nonpayable"},{"type":"function","name":"modifyLiquidity","inputs":[{"name":"key","type":"tuple","internalType":"struct PoolKey","components":[{"name":"currency0","type":"address","internalType":"Currency"},{"name":"currency1","type":"address","internalType":"Currency"},{"name":"fee","type":"uint24","internalType":"uint24"},{"name":"tickSpacing","type":"int24","internalType":"int24"},{"name":"hooks","type":"address","internalType":"contract IHooks"}]},{"name":"params","type":"tuple","internalType":"struct IPoolManager.ModifyLiquidityParams","components":[{"name":"tickLower","type":"int24","internalType":"int24"},{"name":"tickUpper","type":"int24","internalType":"int24"},{"name":"liquidityDelta","type":"int256","internalType":"int256"},{"name":"salt","type":"bytes32","internalType":"bytes32"}]},{"name":"hookData","type":"bytes","internalType":"bytes"}],"outputs":[{"name":"callerDelta","type":"int256","internalType":"BalanceDelta"},{"name":"feesAccrued","type":"int256","internalType":"BalanceDelta"}],"stateMutability":"nonpayable"},{"type":"function","name":"owner","inputs":[],"outputs":[{"name":"","type":"address","internalType":"address"}],"stateMutability":"view"},{"type":"function","name":"protocolFeeController","inputs":[],"outputs":[{"name":"","type":"address","internalType":"contract IProtocolFeeController"}],"stateMutability":"view"},{"type":"function","name":"protocolFeesAccrued","inputs":[{"name":"currency","type":"address","internalType":"Currency"}],"outputs":[{"name":"amount","type":"uint256","internalType":"uint256"}],"stateMutability":"view"},{"type":"function","name":"setOperator","inputs":[{"name":"operator","type":"address","internalType":"address"},{"name":"approved","type":"bool","internalType":"bool"}],"outputs":[{"name":"","type":"bool","internalType":"bool"}],"stateMutability":"nonpayable"},{"type":"function","name":"setProtocolFee","inputs":[{"name":"key","type":"tuple","internalType":"struct PoolKey","components":[{"name":"currency0","type":"address","internalType":"Currency"},{"name":"currency1","type":"address","internalType":"Currency"},{"name":"fee","type":"uint24","internalType":"uint24"},{"name":"tickSpacing","type":"int24","internalType":"int24"},{"name":"hooks","type":"address","internalType":"contract IHooks"}]},{"name":"newProtocolFee","type":"uint24","internalType":"uint24"}],"outputs":[],"stateMutability":"nonpayable"},{"type":"function","name":"setProtocolFeeController","inputs":[{"name":"controller","type":"address","internalType":"contract IProtocolFeeController"}],"outputs":[],"stateMutability":"nonpayable"},{"type":"function","name":"settle","inputs":[],"outputs":[{"name":"","type":"uint256","internalType":"uint256"}],"stateMutability":"payable"},{"type":"function","name":"settleFor","inputs":[{"name":"recipient","type":"address","internalType":"address"}],"outputs":[{"name":"","type":"uint256","internalType":"uint256"}],"stateMutability":"payable"},{"type":"function","name":"supportsInterface","inputs":[{"name":"interfaceId","type":"bytes4","internalType":"bytes4"}],"outputs":[{"name":"","type":"bool","internalType":"bool"}],"stateMutability":"view"},{"type":"function","name":"swap","inputs":[{"name":"key","type":"tuple","internalType":"struct PoolKey","components":[{"name":"currency0","type":"address","internalType":"Currency"},{"name":"currency1","type":"address","internalType":"Currency"},{"name":"fee","type":"uint24","internalType":"uint24"},{"name":"tickSpacing","type":"int24","internalType":"int24"},{"name":"hooks","type":"address","internalType":"contract IHooks"}]},{"name":"params","type":"tuple","internalType":"struct IPoolManager.SwapParams","components":[{"name":"zeroForOne","type":"bool","internalType":"bool"},{"name":"amountSpecified","type":"int256","internalType":"int256"},{"name":"sqrtPriceLimitX96","type":"uint160","internalType":"uint160"}]},{"name":"hookData","type":"bytes","internalType":"bytes"}],"outputs":[{"name":"swapDelta","type":"int256","internalType":"BalanceDelta"}],"stateMutability":"nonpayable"},{"type":"function","name":"sync","inputs":[{"name":"currency","type":"address","internalType":"Currency"}],"outputs":[],"stateMutability":"nonpayable"},{"type":"function","name":"take","inputs":[{"name":"currency","type":"address","internalType":"Currency"},{"name":"to","type":"address","internalType":"address"},{"name":"amount","type":"uint256","internalType":"uint256"}],"outputs":[],"stateMutability":"nonpayable"},{"type":"function","name":"transfer","inputs":[{"name":"receiver","type":"address","internalType":"address"},{"name":"id","type":"uint256","internalType":"uint256"},{"name":"amount","type":"uint256","internalType":"uint256"}],"outputs":[{"name":"","type":"bool","internalType":"bool"}],"stateMutability":"nonpayable"},{"type":"function","name":"transferFrom","inputs":[{"name":"sender","type":"address","internalType":"address"},{"name":"receiver","type":"address","internalType":"address"},{"name":"id","type":"uint256","internalType":"uint256"},{"name":"amount","type":"uint256","internalType":"uint256"}],"outputs":[{"name":"","type":"bool","internalType":"bool"}],"stateMutability":"nonpayable"},{"type":"function","name":"transferOwnership","inputs":[{"name":"newOwner","type":"address","internalType":"address"}],"outputs":[],"stateMutability":"nonpayable"},{"type":"function","name":"unlock","inputs":[{"name":"data","type":"bytes","internalType":"bytes"}],"outputs":[{"name":"result","type":"bytes","internalType":"bytes"}],"stateMutability":"nonpayable"},{"type":"function","name":"updateDynamicLPFee","inputs":[{"name":"key","type":"tuple","internalType":"struct PoolKey","components":[{"name":"currency0","type":"address","internalType":"Currency"},{"name":"currency1","type":"address","internalType":"Currency"},{"name":"fee","type":"uint24","internalType":"uint24"},{"name":"tickSpacing","type":"int24","internalType":"int24"},{"name":"hooks","type":"address","internalType":"contract IHooks"}]},{"name":"newDynamicLPFee","type":"uint24","internalType":"uint24"}],"outputs":[],"stateMutability":"nonpayable"},{"type":"event","name":"Approval","inputs":[{"name":"owner","type":"address","indexed":true,"internalType":"address"},{"name":"spender","type":"address","indexed":true,"internalType":"address"},{"name":"id","type":"uint256","indexed":true,"internalType":"uint256"},{"name":"amount","type":"uint256","indexed":false,"internalType":"uint256"}],"anonymous":false},{"type":"event","name":"Donate","inputs":[{"name":"id","type":"bytes32","indexed":true,"internalType":"PoolId"},{"name":"sender","type":"address","indexed":true,"internalType":"address"},{"name":"amount0","type":"uint256","indexed":false,"internalType":"uint256"},{"name":"amount1","type":"uint256","indexed":false,"internalType":"uint256"}],"anonymous":false},{"type":"event","name":"Initialize","inputs":[{"name":"id","type":"bytes32","indexed":true,"internalType":"PoolId"},{"name":"currency0","type":"address","indexed":true,"internalType":"Currency"},{"name":"currency1","type":"address","indexed":true,"internalType":"Currency"},{"name":"fee","type":"uint24","indexed":false,"internalType":"uint24"},{"name":"tickSpacing","type":"int24","indexed":false,"internalType":"int24"},{"name":"hooks","type":"address","indexed":false,"internalType":"contract IHooks"},{"name":"sqrtPriceX96","type":"uint160","indexed":false,"internalType":"uint160"},{"name":"tick","type":"int24","indexed":false,"internalType":"int24"}],"anonymous":false},{"type":"event","name":"ModifyLiquidity","inputs":[{"name":"id","type":"bytes32","indexed":true,"internalType":"PoolId"},{"name":"sender","type":"address","indexed":true,"internalType":"address"},{"name":"tickLower","type":"int24","indexed":false,"internalType":"int24"},{"name":"tickUpper","type":"int24","indexed":false,"internalType":"int24"},{"name":"liquidityDelta","type":"int256","indexed":false,"internalType":"int256"},{"name":"salt","type":"bytes32","indexed":false,"internalType":"bytes32"}],"anonymous":false},{"type":"event","name":"OperatorSet","inputs":[{"name":"owner","type":"address","indexed":true,"internalType":"address"},{"name":"operator","type":"address","indexed":true,"internalType":"address"},{"name":"approved","type":"bool","indexed":false,"internalType":"bool"}],"anonymous":false},{"type":"event","name":"OwnershipTransferred","inputs":[{"name":"user","type":"address","indexed":true,"internalType":"address"},{"name":"newOwner","type":"address","indexed":true,"internalType":"address"}],"anonymous":false},{"type":"event","name":"ProtocolFeeControllerUpdated","inputs":[{"name":"protocolFeeController","type":"address","indexed":true,"internalType":"address"}],"anonymous":false},{"type":"event","name":"ProtocolFeeUpdated","inputs":[{"name":"id","type":"bytes32","indexed":true,"internalType":"PoolId"},{"name":"protocolFee","type":"uint24","indexed":false,"internalType":"uint24"}],"anonymous":false},{"type":"event","name":"Swap","inputs":[{"name":"id","type":"bytes32","indexed":true,"internalType":"PoolId"},{"name":"sender","type":"address","indexed":true,"internalType":"address"},{"name":"amount0","type":"int128","indexed":false,"internalType":"int128"},{"name":"amount1","type":"int128","indexed":false,"internalType":"int128"},{"name":"sqrtPriceX96","type":"uint160","indexed":false,"internalType":"uint160"},{"name":"liquidity","type":"uint128","indexed":false,"internalType":"uint128"},{"name":"tick","type":"int24","indexed":false,"internalType":"int24"},{"name":"fee","type":"uint24","indexed":false,"internalType":"uint24"}],"anonymous":false},{"type":"event","name":"Transfer","inputs":[{"name":"caller","type":"address","indexed":false,"internalType":"address"},{"name":"from","type":"address","indexed":true,"internalType":"address"},{"name":"to","type":"address","indexed":true,"internalType":"address"},{"name":"id","type":"uint256","indexed":true,"internalType":"uint256"},{"name":"amount","type":"uint256","indexed":false,"internalType":"uint256"}],"anonymous":false},{"type":"error","name":"AlreadyUnlocked","inputs":[]},{"type":"error","name":"ContractUnlocked","inputs":[]},{"type":"error","name":"CurrenciesOutOfOrderOrEqual","inputs":[{"name":"currency0","type":"address","internalType":"address"},{"name":"currency1","type":"address","internalType":"address"}]},{"type":"error","name":"CurrencyNotSettled","inputs":[]},{"type":"error","name":"DelegateCallNotAllowed","inputs":[]},{"type":"error","name":"InvalidCaller","inputs":[]},{"type":"error","name":"ManagerLocked","inputs":[]},{"type":"error","name":"MustClearExactPositiveDelta","inputs":[]},{"type":"error","name":"NonzeroNativeValue","inputs":[]},{"type":"error","name":"PoolNotInitialized","inputs":[]},{"type":"error","name":"ProtocolFeeTooLarge","inputs":[{"name":"fee","type":"uint24","internalType":"uint24"}]},{"type":"error","name":"SwapAmountCannotBeZero","inputs":[]},{"type":"error","name":"TickSpacingTooLarge","inputs":[{"name":"tickSpacing","type":"int24","internalType":"int24"}]},{"type":"error","name":"TickSpacingTooSmall","inputs":[{"name":"tickSpacing","type":"int24","internalType":"int24"}]},{"type":"error","name":"UnauthorizedDynamicLPFeeUpdate","inputs":[]}],"bytecode":{"object":"0x60a08060405234605a575f80546001600160a01b031916339081178255907f8be0079c531659141344cd1fd0a4f28419497f9722a3daafe3b4186f6b6457e08180a33060805261424c908161005f8239608051816123ed0152f35b5f80fdfe60c0806040526004361015610012575f80fd5b5f3560e01c908162fdd58e14611f355750806301ffc9a714611edf578063095bcdb614611e585780630b0d9c0914611dfd57806311da60b414611dd3578063156e29f614611d4e5780631e2eaeaf14611d32578063234266d714611b3a5780632d77138914611ac857806335fd631a14611a725780633dd45adb14611a3f578063426a8493146119c557806348c894911461182e578063527596511461178a578063558a7297146116f8578063598af9e71461169e5780635a6bcfda14610dcc5780636276cbbe14610b1a5780637e87ce7d14610a4a57806380f0b44c146109cf5780638161b8741461090f5780638da5cb5b146108e857806397e8cd4e146108b05780639bf6645f14610863578063a5841194146107d5578063b6363cf21461077e578063dbd035ff14610728578063f02de3b214610700578063f135baaa146106e4578063f2fde38b1461066f578063f3cd914c14610407578063f5298aca146102e45763fe99049a14610186575f80fd5b346102e05760803660031901126102e05761019f611f74565b6101a7611f8a565b60443591606435916001600160a01b03909116905f805160206141b7833981519152906102449033841415806102bd575b610252575b835f52600460205260405f20865f5260205260405f206101fe868254612154565b905560018060a01b031693845f52600460205260405f20865f5260205260405f2061022a828254612161565b905560408051338152602081019290925290918291820190565b0390a4602060405160018152f35b5f84815260056020908152604080832033845282528083208984529091529020548560018201610284575b50506101dd565b61028d91612154565b845f52600560205260405f2060018060a01b0333165f5260205260405f20875f5260205260405f20555f8561027d565b505f84815260036020908152604080832033845290915290205460ff16156101d8565b5f80fd5b346102e0576102f236611fa0565b5f805160206141d78339815191525c156103f8575f805160206141b78339815191526103705f9360018060a01b03169461033661032e856121c9565b3390886121ea565b6001600160a01b03169233841415806103d6575b610375575b8385526004602052604085208686526020526040852061022a828254612154565b0390a4005b838552600560209081526040808720338852825280872088885290915285205481861982036103a6575b505061034f565b6103af91612154565b8486526005602090815260408088203389528252808820898952909152862055868161039f565b5083855260036020908152604080872033885290915285205460ff161561034a565b6354e3ca0d60e01b5f5260045ffd5b346102e0576101203660031901126102e0576104223661204e565b60603660a31901126102e0576040519061043b82611fe5565b60a43580151581036102e057825260c435602083019081529060e435906001600160a01b03821682036102e05760408401918252610104356001600160401b0381116102e05761048f9036906004016120d5565b9290935f805160206141d78339815191525c156103f8576104ae6123eb565b51156106605760a0822092835f52600660205260405f20906104cf8261242c565b60808401958482828a600160a01b600190038b5116936104ee94612864565b90949195606088015160020b908b51151590600160a01b60019003905116916040519861051a8a612000565b895260208901526040880152606087015262ffffff166080860152885115155f149862ffffff610607986105636105f49860209d61064d578a516001600160a01b031695613292565b94929682919261062e575b505060018060a01b03845116938e6001600160801b0360408301511691015160020b90604051958860801d600f0b875288600f0b60208801526040870152606086015260808501521660a08301527f40e9cecb9f5f1f1c5b9c97dec2917b7ee92e57ba5563708daca94dd84ad7112f60c03393a3885187906001600160a01b03166129d1565b8094919461060f575b50508233916124cd565b604051908152f35b9051610627916001600160a01b0390911690836124cd565b84806105fd565b60018060a01b03165f5260018f5260405f209081540190558e8061056e565b8a8e01516001600160a01b031695613292565b63be8b850760e01b5f5260045ffd5b346102e05760203660031901126102e057610688611f74565b5f549061069f336001600160a01b0384161461216e565b60018060a01b031680916bffffffffffffffffffffffff60a01b16175f55337f8be0079c531659141344cd1fd0a4f28419497f9722a3daafe3b4186f6b6457e05f80a3005b346102e05760203660031901126102e0576004355c5f5260205ff35b346102e0575f3660031901126102e0576002546040516001600160a01b039091168152602090f35b346102e05761073636612102565b6040519160408360208152836020820152019160051b8301916020806040850193925b8335548152019101908483821015610775575060208091610759565b60408186030190f35b346102e05760403660031901126102e057610797611f74565b61079f611f8a565b9060018060a01b03165f52600360205260405f209060018060a01b03165f52602052602060ff60405f2054166040519015158152f35b346102e05760203660031901126102e0576107ee611f74565b5f805160206141d78339815191525c156103f8576001600160a01b03811690816108265750505f5f805160206141978339815191525d005b61082f906127d8565b905f805160206141978339815191525d7f1e0745a7db1623981f0b2a5d4232364c00787266eb75ad546f190e6cebe9bd955d005b346102e05761087136612102565b6040519160408360208152836020820152019160051b8301916020806040850193925b83355c8152019101908483821015610775575060208091610894565b346102e05760203660031901126102e0576001600160a01b036108d1611f74565b165f526001602052602060405f2054604051908152f35b346102e0575f3660031901126102e0575f546040516001600160a01b039091168152602090f35b346102e05760603660031901126102e057610928611f74565b610930611f8a565b600254909190604435906001600160a01b031633036109c0575f805160206141d78339815191525c6109b15760209261060791806109a957506001600160a01b0381165f9081526001855260409020549283915b60018060a01b0381165f526001865260405f206109a2848254612154565b9055612275565b928391610984565b631f2fa7eb60e11b5f5260045ffd5b6348f5c3ed60e01b5f5260045ffd5b346102e05760403660031901126102e0576109e8611f74565b5f805160206141d78339815191525c156103f857335f9081526001600160a01b038216602052604090205c610a1e6024356121c9565b9081600f0b03610a3b57610a399133915f03600f0b906121ea565b005b63bda73abf60e01b5f5260045ffd5b346102e05760c03660031901126102e057610a643661204e565b610a6c61203c565b6002549091906001600160a01b031633036109c057623e900062fff0008316106103e9610fff8416101615610b0257602060a07fe9c42593e71f84403b84352cd168d693e2c9fcd1fdbcc3feb21d92b43e6696f9922092835f526006825260405f20610ad78161242c565b805462ffffff60b81b191660b883901b62ffffff60b81b1617905560405162ffffff919091168152a2005b62ffffff8263a7abe2f760e01b5f521660045260245ffd5b346102e05760c03660031901126102e057610b343661204e565b60a435906001600160a01b038216908183036102e057610b526123eb565b6060810191825160020b617fff8113610dba5750825160020b60018112610da8575081516020830180519092916001600160a01b03908116911680821015610d8a575050608083018051604085018051909592916001600160a01b031690610bbf9062ffffff168261270a565b15610d785750610bd462ffffff8651166127bb565b81516001600160a01b0381169033829003610d25575b505060a0832093845f52600660205260405f2092835460018060a01b0316610d165762ffffff7fdd466e674ea557f56295e2d0218a125ea4b4f0f6f3307b95f85e6110838d64389560a095610c4060209d61300d565b95831660d01b868416881b861717905582516001871b5f190181169033829003610cb4575b5050600180871b0390511697600180871b03905116985116985160020b90600180861b0390511690604051998a528a8a01526040890152606088015260020b95866080820152a4604051908152f35b61100016610cc3575b80610c65565b604051636fe7e6eb60e01b8e820152336024820152610d0f91610ce9604483018561244c565b8660e48301528760020b6101048301526101048252610d0a6101248361201b565b612af3565b508c610cbd565b637983c05160e01b5f5260045ffd5b61200016610d34575b80610bea565b604051636e4c1aa760e11b6020820152336024820152610d7191610d5b604483018761244c565b8660e483015260e48252610d0a6101048361201b565b5088610d2e565b630732d7b560e51b5f5260045260245ffd5b60449250604051916306e6c98360e41b835260048301526024820152fd5b631d3d20b160e31b5f5260045260245ffd5b6316e0049f60e31b5f5260045260245ffd5b346102e0576101403660031901126102e057610de73661204e565b60803660a31901126102e05760405190610e0082611fca565b60a4358060020b81036102e057825260c4358060020b81036102e057602083015260e4356040830152610104356060830152610124356001600160401b0381116102e057610e529036906004016120d5565b90925f805160206141d78339815191525c156103f857610e706123eb565b60a0832093845f52600660205260405f20608052610e8f60805161242c565b60808401516001600160a01b03811690338290036115e9575b5050815160020b92602083015160020b91610ec6604085015161258e565b93606087015160020b9760608201516040519960c08b018b81106001600160401b038211176115d557604052338b528860208c01528660408c015287600f0b60608c015260808b015260a08a01525f91858812156115b757620d89e71988126115a457620d89e886136115915760405192610f4084611fca565b5f84525f60208501525f60408501525f606085015287600f0b61136e575b600460805101978960020b5f528860205260405f20988860020b5f5260205260405f206080515460a01c60020b8b81125f14611318575060028060018c0154600184015490039b015491015490039b5b60a0600180821b03825116910151906040519160268301528960068301528b600383015281525f603a600c83012091816040820152816020820152525f5260066080510160205260405f20976001600160801b038954169982600f0b155f146112dc578a156112cd5761105b61105560409f9b61111c9c61112e9e5b600183019561104d6002611041848a548503613cc3565b95019283548503613cc3565b9655556121c9565b916121c9565b6001600160801b03169060801b179a8b965f84600f0b1261125f575b5082600f0b61115b575b5050506110a76110988560801d8360801d0161258e565b9185600f0b90600f0b0161258e565b6001600160801b03169060801b1791815160020b90602083015160020b8c8401516060850151918e5194855260208501528d84015260608301527ff208f4912782fd25c7f114ca3723a2d5dd6f3bcc3ac8db5af63baa85f711d5ec60803393a3608089015189906001600160a01b031661260c565b8094919461113a575b508333916124cd565b82519182526020820152f35b6080820151611155916001600160a01b0390911690836124cd565b85611125565b6080515492935090916001600160a01b0381169060a01c60020b828112156111b4575050906111a89261119d6111936111a394612be4565b91600f0b92612be4565b90612f5c565b61258e565b60801b5b8b8080611081565b92809193125f14611235576111f3916111e06111a36111a3936111da88600f0b91612be4565b87612f5c565b936111ee86600f0b92612be4565b612f11565b6001600160801b03169060801b17906001600160801b0361122060036080510192600f0b82845416612f91565b166001600160801b03198254161790556111ac565b906111a392509261124b61119361125195612be4565b90612f11565b6001600160801b03166111ac565b808f91516112a1575b0151611275575b8e611077565b61129c8260805160049160020b5f52016020525f6002604082208281558260018201550155565b61126f565b6112c88360805160049160020b5f52016020525f6002604082208281558260018201550155565b611268565b632bbfae4960e21b5f5260045ffd5b61105b61105560409f9b61111c9c61112e9e6001600160801b0361130389600f0b83612f91565b166001600160801b031984541617835561102a565b909990891361133e5760028060018c0154600184015490039b015491015490039b610fae565b9860026001608051015460018c01549003600183015490039a81806080510154910154900391015490039b610fae565b6004608051018960020b5f5280602052898960405f206113be81546001600160801b036113a181831695600f0b86612f91565b1693159485851514159561155d575b508d600f0b9060801d6129ab565b60801b82179055602087015285528760020b5f5260205260405f208054906001600160801b0382166113f38b600f0b82612f91565b901592836001600160801b03831615141593611530575b8b600f0b9060801d600f0b039160016001607f1b03831360016001607f1b031984121761151c57826001600160801b03935060801b83831617905516606086015260408501525f88600f0b12156114a5575b8351611489575b604084015115610f5e5761148460808c015160020b88600560805101612b98565b610f5e565b6114a060808c015160020b8a600560805101612b98565b611463565b60808b015160020b6001600160801b03600181602088015116925f81620d89e719071281620d89e719050390620d89e8050301810416809111611509576001600160801b03606086015116111561145c578663b8e3c38560e01b5f5260045260245ffd5b8963b8e3c38560e01b5f5260045260245ffd5b634e487b7160e01b5f52601160045260245ffd5b6080515460a01c60020b8b1361140a5760016080510154600184015560026080510154600284015561140a565b6080515460a01c60020b1215611574575b8e6113b0565b60016080510154600184015560026080510154600284015561156e565b8563035aeeff60e31b5f5260045260245ffd5b8763d5e2f7ab60e01b5f5260045260245ffd5b604488876040519163c4433ed560e01b835260048301526024820152fd5b634e487b7160e01b5f52604160045260245ffd5b5f604085015113808091611691575b1561163f57505060405163259982e560e01b602082015261163691610d0a826116288887898c3360248701612528565b03601f19810184528361201b565b505b8580610ea8565b159081611683575b50611653575b50611638565b60405163021d0ee760e41b602082015261167c91610d0a826116288887898c3360248701612528565b508561164d565b610200915016151587611647565b50610800821615156115f8565b346102e05760603660031901126102e0576116b7611f74565b6116bf611f8a565b6001600160a01b039182165f90815260056020908152604080832094909316825292835281812060443582528352819020549051908152f35b346102e05760403660031901126102e057611711611f74565b602435908115158092036102e057335f52600360205260405f2060018060a01b0382165f5260205260405f2060ff1981541660ff841617905560405191825260018060a01b0316907fceb576d9f15e4e200fdb5096d64d5dfd667e16def20c1eefd14256d8e3faa26760203392a3602060405160018152f35b346102e05760c03660031901126102e0576117a43661204e565b6117ac61203c565b906280000062ffffff60408301511614801590611817575b6118085760a0906117d483612504565b205f52600660205260405f20906117ea8261242c565b815462ffffff60d01b191660d09190911b62ffffff60d01b16179055005b6330d2164160e01b5f5260045ffd5b5060808101516001600160a01b03163314156117c4565b346102e05760203660031901126102e0576004356001600160401b0381116102e05761185e9036906004016120d5565b5f805160206141d78339815191525c6119b6576118ab915f9160015f805160206141d78339815191525d6040516348eeb9a360e11b815260206004820152938492839260248401916121a9565b038183335af19081156119ab575f91611923575b505f805160206141f78339815191525c6119145760406020915f5f805160206141d78339815191525d815192839181835280519182918282860152018484015e5f828201840152601f01601f19168101030190f35b635212cba160e01b5f5260045ffd5b90503d805f833e611934818361201b565b8101906020818303126102e0578051906001600160401b0382116102e0570181601f820112156102e0578051906001600160401b0382116115d55760405192611987601f8401601f19166020018561201b565b828452602083830101116102e057815f9260208093018386015e83010152816118bf565b6040513d5f823e3d90fd5b6328486b6360e11b5f5260045ffd5b346102e0576119d336611fa0565b9091335f52600560205260405f2060018060a01b0382165f5260205260405f20835f526020528160405f205560405191825260018060a01b0316907fb3fd5071835887567a0671151121894ddccc2842f1d10bedad13e0d17cace9a760203392a4602060405160018152f35b60203660031901126102e057611a53611f74565b5f805160206141d78339815191525c156103f857610607602091612355565b346102e05760403660031901126102e0576024356004356040519160408360208152826020820152019060051b8301916001602060408501935b8354815201910190848382101561077557506020600191611aac565b346102e05760203660031901126102e0576004356001600160a01b038116908190036102e057611b0260018060a01b035f5416331461216e565b600280546001600160a01b031916821790557fb4bd8ef53df690b9943d3318996006dbb82a25f54719d8c8035b516a2a5b8acc5f80a2005b346102e0576101003660031901126102e057611b553661204e565b60c4359060a43560e4356001600160401b0381116102e057611b7b9036906004016120d5565b9190935f805160206141d78339815191525c156103f857611b9a6123eb565b60a0842094855f52600660205260405f2094611bb58661242c565b6080810180516001600160a01b0381169033829003611cf3575b50506001600160801b03600388015416978815611ce457602098611bf2876121c9565b5f03611bfd876121c9565b5f036001600160801b03169060801b179887611cd0575b86611cbb575b5050611c273389856124cd565b60405190868252858a8301527f29ef05caaff9404b7cb6d1c0e9bbae9eaa7ab2541feba1a9c4248594c08156cb60403393a3516001600160a01b038116939033859003611c79575b8888604051908152f35b601016611c87575b80611c6f565b611caf95610d0a936116289260405197889563e1b4af6960e01b8d880152336024880161248f565b50828080808080611c81565b600201908660801b0481540190558980611c1a565b60018101828960801b048154019055611c14565b63a74f97ab60e01b5f5260045ffd5b602016611d01575b80611bcf565b604051635b54587d60e11b6020820152611d2b91610d0a826116288b898b8d8b336024880161248f565b5088611cfb565b346102e05760203660031901126102e057600435545f5260205ff35b346102e057611d5c36611fa0565b905f805160206141d78339815191525c156103f8576001600160a01b0316915f905f805160206141b78339815191529061037090611da9611d9c866121c9565b8503600f0b3390886121ea565b60018060a01b0316938484526004602052604084208685526020526040842061022a828254612161565b5f3660031901126102e0575f805160206141d78339815191525c156103f857602061060733612355565b346102e05760603660031901126102e057611e16611f74565b611e1e611f8a565b604435905f805160206141d78339815191525c156103f857610a3992611e53611e46846121c9565b5f03600f0b3390836121ea565b612275565b346102e057611e6636611fa0565b9091335f52600460205260405f20835f5260205260405f20611e89838254612154565b905560018060a01b031690815f52600460205260405f20835f5260205260405f20611eb5828254612161565b9055604080513380825260208201939093525f805160206141b78339815191529181908101610244565b346102e05760203660031901126102e05760043563ffffffff60e01b81168091036102e0576020906301ffc9a760e01b8114908115611f24575b506040519015158152f35b630f632fb360e01b14905082611f19565b346102e05760403660031901126102e0576020906001600160a01b03611f59611f74565b165f526004825260405f206024355f52825260405f20548152f35b600435906001600160a01b03821682036102e057565b602435906001600160a01b03821682036102e057565b60609060031901126102e0576004356001600160a01b03811681036102e057906024359060443590565b608081019081106001600160401b038211176115d557604052565b606081019081106001600160401b038211176115d557604052565b60a081019081106001600160401b038211176115d557604052565b90601f801991011681019081106001600160401b038211176115d557604052565b60a4359062ffffff821682036102e057565b60a09060031901126102e0576040519061206782612000565b816004356001600160a01b03811681036102e05781526024356001600160a01b03811681036102e057602082015260443562ffffff811681036102e05760408201526064358060020b81036102e0576060820152608435906001600160a01b03821682036102e05760800152565b9181601f840112156102e0578235916001600160401b0383116102e057602083818601950101116102e057565b9060206003198301126102e0576004356001600160401b0381116102e057826023820112156102e0578060040135926001600160401b0384116102e05760248460051b830101116102e0576024019190565b9190820391821161151c57565b9190820180921161151c57565b1561217557565b60405162461bcd60e51b815260206004820152600c60248201526b15539055551213d49256915160a21b6044820152606490fd5b908060209392818452848401375f828201840152601f01601f1916010190565b6001607f1b8110156121db57600f0b90565b6393dafdf160e01b5f5260045ffd5b9190600f0b918215612270576001600160a01b039182165f90815291166020526040902061221a815c9283612849565b80915d61224657505f195f805160206141f78339815191525c015f805160206141f78339815191525d5b565b1561224d57565b60015f805160206141f78339815191525c015f805160206141f78339815191525d565b505050565b9091906001600160a01b03811690816122cf5750505f80808093855af11561229a5750565b3d60405191638549db5960e01b8352600483015260406024830152806044830152805f606484013e601f801991011660640190fd5b60205f604481949682604095865198899363a9059cbb60e01b855260018060a01b0316600485015260248401525af13d15601f3d116001855114161716928281528260208201520152156123205750565b3d60405191632c4b17e760e21b8352600483015260406024830152806044830152805f606484013e601f801991011660640190fd5b5f805160206141978339815191525c91906001600160a01b03831661238a576122449034935b612384856121c9565b906121ea565b346123dc57612244906123c67f1e0745a7db1623981f0b2a5d4232364c00787266eb75ad546f190e6cebe9bd955c6123c1866127d8565b612154565b935f5f805160206141978339815191525d61237b565b635876424f60e11b5f5260045ffd5b7f00000000000000000000000000000000000000000000000000000000000000006001600160a01b0316300361241d57565b6306c4a1c760e11b5f5260045ffd5b546001600160a01b03161561243d57565b63486aa30760e01b5f5260045ffd5b80516001600160a01b03908116835260208083015182169084015260408083015162ffffff169084015260608083015160020b9084015260809182015116910152565b91926124b2610120946124ca98969360018060a01b03168552602085019061244c565b60c083015260e08201528161010082015201916121a9565b90565b9061224492916124eb8360018060a01b038351168460801d906121ea565b60200151600f9190910b906001600160a01b03166121ea565b62ffffff16620f424081116125165750565b631400211360e01b5f5260045260245ffd5b6001600160a01b0390911681526124ca949261016092612580919061255190602085019061244c565b8051600290810b60c08501526020820151900b60e0840152604081015161010084015260600151610120830152565b8161014082015201916121a9565b9081600f0b9182036121db57565b926125f2906125c36124ca9997946101a0979460018060a01b03168752602087019061244c565b8051600290810b60c08701526020820151900b60e0860152604081015161010086015260600151610120850152565b6101408301526101608201528161018082015201916121a9565b939590919296945f9660018060a01b03861633146126ff57885f6040870151135f146126a7576104008716612645575b50505050505050565b61269a97999850926126939695949261267992612687956040519788966327c18fbf60e21b6020890152336024890161259c565b03601f19810183528261201b565b60028216151591612fb9565b8092612fd9565b915f80808080808061263c565b95949392919061010086166126bf5750505050505050565b61269a97995086985091612679916126f3949361269398604051978896633615df3f60e11b6020890152336024890161259c565b60018216151591612fb9565b505f96505050505050565b6080811615806127af575b612785576040811615806127a3575b6127855761040081161580612797575b612785576101008116158061278b575b612785576001600160a01b038116612765575062ffffff1662800000141590565b613fff161590811591612776575090565b62800000915062ffffff161490565b50505f90565b50600181161515612744565b50600281161515612734565b50600481161515612724565b50600881161515612715565b6280000062ffffff8216146127d3576124ca81612504565b505f90565b6001600160a01b0316806127eb57504790565b6020602491604051928380926370a0823160e01b82523060048301525afa9081156119ab575f9161281a575090565b90506020813d602011612841575b816128356020938361201b565b810103126102e0575190565b3d9150612828565b9190915f838201938412911290801582169115161761151c57565b6020830151955f958695919491336001600160a01b0385161461299e5760808416612891575b5050505050565b61290992612679612903926128ef946040519586946315d7892d60e21b60208701523360248701526128c6604487018c61244c565b8051151560e48701526020810151610104870152604001516001600160a01b0316610124860152565b6101406101448501526101648401916121a9565b82612af3565b91606083510361298f576040015162ffffff166280000014612983575b600816612937575b8080808061288a565b604001519250608083901d600f0b801561292e57612958905f861295612849565b931561297b575f84135b61296c575f61292e565b637d05b8eb60e11b5f5260045ffd5b5f8412612962565b60608201519350612926565b631e048e1d60e01b5f5260045ffd5b505f965086955050505050565b90600f0b90600f0b019060016001607f1b0319821260016001607f1b0383131761151c57565b91969592949293336001600160a01b03841614612ae6578460801d94600f0b938860408516612a71575b50505050505f9481600f0b15801590612a65575b612a1b575b5050509190565b612a499395505f60208201511290511515145f14612a51576001600160801b03169060801b175b8093612fd9565b5f8080612a14565b906001600160801b03169060801b17612a42565b5082600f0b1515612a0f565b612aca612ad6946126796111a395612adc999895612aaf6128c69660405197889663b47b2fb160e01b6020890152336024890152604488019061244c565b8c6101448501526101606101648501526101848401916121a9565b60048216151591612fb9565b906129ab565b5f808080886129fb565b5050505050909150905f90565b9190915f80602085519501948582855af115612b59575060405191601f19603f3d011683016040523d83523d9060208401915f833e6020845110918215612b3d575b505061298f57565b5190516001600160e01b03199182169116141590505f80612b35565b6040805163319d54c360e01b81526001600160a01b03909216600483015260248201523d60448201819052805f606484013e601f801991011660640190fd5b919060020b9060020b90818107612bc65705908160081d5f52602052600160ff60405f2092161b8154189055565b601c906044926040519163d4d8f3e683526020830152604082015201fd5b60020b908160ff1d82810118620d89e88111612efe5763ffffffff9192600182167001fffcb933bd6fad37aa2d162d1a59400102600160801b189160028116612ee2575b60048116612ec6575b60088116612eaa575b60108116612e8e575b60208116612e72575b60408116612e56575b60808116612e3a575b6101008116612e1e575b6102008116612e02575b6104008116612de6575b6108008116612dca575b6110008116612dae575b6120008116612d92575b6140008116612d76575b6180008116612d5a575b620100008116612d3e575b620200008116612d23575b620400008116612d08575b6208000016612cef575b5f12612ce7575b0160201c90565b5f1904612ce0565b6b048a170391f7dc42444e8fa290910260801c90612cd9565b6d2216e584f5fa1ea926041bedfe9890920260801c91612ccf565b916e5d6af8dedb81196699c329225ee6040260801c91612cc4565b916f09aa508b5b7a84e1c677de54f3e99bc90260801c91612cb9565b916f31be135f97d08fd981231505542fcfa60260801c91612cae565b916f70d869a156d2a1b890bb3df62baf32f70260801c91612ca4565b916fa9f746462d870fdf8a65dc1f90e061e50260801c91612c9a565b916fd097f3bdfd2022b8845ad8f792aa58250260801c91612c90565b916fe7159475a2c29b7443b29c7fa6e889d90260801c91612c86565b916ff3392b0822b70005940c7a398e4b70f30260801c91612c7c565b916ff987a7253ac413176f2b074cf7815e540260801c91612c72565b916ffcbe86c7900a88aedcffc83b479aa3a40260801c91612c68565b916ffe5dee046a99a2a811c461f1969c30530260801c91612c5e565b916fff2ea16466c96a3843ec78b326b528610260801c91612c55565b916fff973b41fa98c081472e6896dfb254c00260801c91612c4c565b916fffcb9843d60f6159c9db58835c9266440260801c91612c43565b916fffe5caca7e10e4e61c3624eaa0941cd00260801c91612c3a565b916ffff2e50f5f656932ef12357cf3c7fdcc0260801c91612c31565b916ffff97272373d413259a46990580e213a0260801c91612c28565b826345c3193d60e11b5f5260045260245ffd5b905f83600f0b125f14612f3d57612f33925f036001600160801b031691613f07565b5f81126121db5790565b612f50926001600160801b031691613ecb565b5f81126121db575f0390565b905f83600f0b125f14612f7e57612f33925f036001600160801b031691613f9f565b612f50926001600160801b031691613f33565b906001600160801b0390600f0b911601908160801c612fac57565b6393dafdf15f526004601cfd5b90612fc391612af3565b90156127d357604081510361298f576040015190565b612ffc90612fee8360801d8260801d0361258e565b92600f0b90600f0b0361258e565b6001600160801b03169060801b1790565b73fffd8963efd1fc6a506488495d951d51639616826401000276a21982016001600160a01b03161161325457602081901b640100000000600160c01b03168060ff61305782613ffd565b1691608083106132485750607e1982011c5b800280607f1c8160ff1c1c800280607f1c8160ff1c1c800280607f1c8160ff1c1c800280607f1c8160ff1c1c800280607f1c8160ff1c1c800280607f1c8160ff1c1c80029081607f1c8260ff1c1c80029283607f1c8460ff1c1c80029485607f1c8660ff1c1c80029687607f1c8860ff1c1c80029889607f1c8a60ff1c1c80029a8b607f1c8c60ff1c1c80029c8d80607f1c9060ff1c1c800260cd1c6604000000000000169d60cc1c6608000000000000169c60cb1c6610000000000000169b60ca1c6620000000000000169a60c91c6640000000000000169960c81c6680000000000000169860c71c670100000000000000169760c61c670200000000000000169660c51c670400000000000000169560c41c670800000000000000169460c31c671000000000000000169360c21c672000000000000000169260c11c674000000000000000169160c01c6780000000000000001690607f190160401b1717171717171717171717171717693627a301d71055774c85026f028f6481ab7f045a5af012a19d003aa919810160801d60020b906fdb2df09e81959a81455e260799a0632f0160801d60020b918282145f146132245750905090565b6001600160a01b039081169061323984612be4565b1611613243575090565b905090565b905081607f031b613069565b6318521d4960e21b5f9081526001600160a01b0391909116600452602490fd5b811561327e570490565b634e487b7160e01b5f52601260045260245ffd5b60405192915f906132a285611fe5565b5f8552602085015f815260408601905f8252868554936040810151159788155f14613cb557610fff8660b81c16955b82516001600160a01b03821680865260a083901c60020b90965260038a01546001600160801b031690965260808301515f96959062400000811615613ca65762bfffff1661331e81612504565b61ffff8916613c84575b8095620f424062ffffff83161015613c6c575b855115613c565750508a613c0e576060840180519091906001600160a01b031681811015613bf0575050516001600160a01b03166401000276a3811115613bde57505b60405160a05261010060a0510160a05181106001600160401b038211176115d5576040525f60a051525f602060a05101525f604060a05101525f606060a05101525f608060a05101525f60a0805101525f60c060a051015289155f14613bd0576001890154959490955b60e060a05101525b80158015613bb5575b613ac85760018060a01b038b511660a0515260208b015160020b602084015160020b90815f81830712910503908b155f146139d35760ff8216918060020b60081d60010b5f5260058c0160205260405f205f198460ff031c9054169283151593845f146139c1579061346c60ff92613ffd565b90031660020b900360020b0260020b5b905b1515604060a051015260020b80602060a0510152620d89e71912156139b0575b620d89e8602060a051015160020b12156139a0575b898b6001600160801b0360406001808060a01b036134d9602060a051015160020b612be4565b1680606060a0510152818060a01b0385511695828060a01b0360608b015116928391151681831018911802189201511662ffffff87169260018060a01b038316811015915f86125f146138765784620f42400361353881885f03613d0c565b9484156138655761354a838583613f33565b955b8681106137ca5750958691620f424082036137bb575050845b935b156137ad579161357692613f07565b905b60c060a051015260a080510152608060a051015260018060a01b03168b525f8351135f146137785760a080510151905f82126121db5703936135c7608060a051015160c060a051015190612161565b5f81126121db57810390811360011661151c57945b61ffff8716613744575b6001600160801b0360408c01511680613724575b508a5160a051606001516001600160a01b03918216911681036136f35750604060a0510151613659575b8961364a575f19602060a051015160020b0160020b5b60020b60208c01525b94936133f0565b602060a051015160020b61363a565b896136d7576001600160801b036136be60e060a051015160028c01545b602060a051015160020b60020b5f5260048d0160205260405f2091600183019081549003905560028201908154900390555460801d8d8d156136c9575b604001518316612f91565b1660408c0152613624565b5f91909103600f0b906136b3565b6001600160801b036136be60018b015460e060a0510151613676565b60a051516001600160a01b0316810361370d575b50613643565b6137169061300d565b60020b60208c01525f613707565b60c060a051015160801b0460e060a05101510160e060a05101525f6135fa565b96620f4240608060a051015161ffff89169060c060a0510151010204908160c060a05101510360c060a051015201966135e6565b608060a051015160c060a051015101905f82126121db57019360a0805101515f81126121db576137a791612849565b946135dc565b6137b692613f9f565b613576565b6137c59187614080565b613565565b9650869550505081158115176138585782156137f7576137eb858284614103565b809587015f0393613567565b6001600160a01b03851161383a576138356138306138216001600160801b0384168860601b613274565b6001600160a01b038516612161565b614182565b6137eb565b6138356138306138536001600160801b03841688613dc1565b613821565b634f2461b85f526004601cfd5b613870838286613ecb565b9561354c565b9193929190841561398f5761388c828285613f07565b915b8287106138cd576138ba929380965b156138bf57916138ac92613f33565b809380620f42400391614080565b613578565b6138c892613ecb565b6138ac565b8693509150801582151761385857841561397b576001600160a01b03861161393d578560601b6001600160801b0383168082061515910401915b6001600160a01b03821683811115613930576138ba9390036001600160a01b03165b809661389d565b634323a5555f526004601cfd5b6001600160801b03821661395681600160601b89613e4b565b90801561327e57600160601b880961396f575b91613907565b60010180613969575f80fd5b8161398a876138ba94846140a9565b613929565b61399a828483613f9f565b9161388e565b620d89e8602060a05101526134b3565b620d89e719602060a051015261349e565b5060020b900360020b0260020b61347c565b90600101908160020b8260ff16928160081d60010b5f5260058d0160205260405f2090600160ff5f1992161b0119905416801593841594855f14613ab0576102e0578160ff925f03167e1f0d1e100c1d070f090b19131c1706010e11080a1a141802121b1503160405601f6101e07f804040554300526644320000502061067405302602000010750620017611707760fc7fb6db6db6ddddddddd34d34d349249249210842108c6318c639ce739cffffffff860260f81c161b60f71c1692831c63d76453e004161a17031660020b0160020b0260020b5b9061347e565b5060ff809250031660020b0160020b0260020b613aaa565b93955098959791969093602087015160a01b62ffffff60a01b1660018060a01b038851169168ffffffffffffffffff60b81b16171781556001600160801b036003820154166001600160801b03604088015116809103613b91575b508115613b8057600260e060a05101519101555b825190155f821214613b6a5750613b51613b59929361258e565b92510361258e565b6001600160801b03169060801b1793565b613b59925090613b7a910361258e565b9161258e565b600160e060a0510151910155613b37565b6001600160801b03166001600160801b03196003830154161760038201555f613b23565b508a5160608401516001600160a01b039081169116146133f9565b6002890154959490956133e8565b639e4d7cc760e01b5f5260045260245ffd5b6044925060405191637c9c6e8f60e01b835260048301526024820152fd5b6060840180519091906001600160a01b031681811115613bf0575050516001600160a01b031673fffd8963efd1fc6a506488495d951d5263988d26811015613bde575061337e565b9a509a50505098505050505050505f925f929190565b5f8651131561333b57634b10312360e11b5f5260045ffd5b62ffffff610fff8a169116808202620f42408082061515910401910103613328565b508160d01c62ffffff1661331e565b610fff8660c41c16956132d1565b81810291905f1982820991838084109303928084039384600160801b11156102e05714613d0357600160801b910990828211900360801b910360801c1790565b50505060801c90565b808202905f1983820990828083109203918083039283620f424011156102e05714613d6c577fde8f6cefed634549b62c77574f722e1ac57e23f24d8fd5cb790fb65668c2613993620f4240910990828211900360fa1b910360061c170290565b5050620f424091500490565b81810291905f1982820991838084109303928084039384600160601b11156102e05714613db857600160601b910990828211900360a01b910360601c1790565b50505060601c90565b90606082901b905f19600160601b8409928280851094039380850394858411156102e05714613e44578190600160601b900981805f03168092046002816003021880820260020302808202600203028082026002030280820260020302808202600203028091026002030293600183805f03040190848311900302920304170290565b5091500490565b91818302915f19818509938380861095039480860395868511156102e05714613ec3579082910981805f03168092046002816003021880820260020302808202600203028082026002030280820260020302808202600203028091026002030293600183805f03040190848311900302920304170290565b505091500490565b6001600160a01b0391821691160360ff81901d90810118906001906001600160801b0316613ef98382613d78565b928260601b91091515160190565b6124ca926001600160a01b03928316919092160360ff81901d90810118906001600160801b0316613d78565b6001600160a01b0382811690821611613f99575b6001600160a01b038116928315613f8d57613f81926001600160a01b0380821693909103169060601b600160601b600160e01b0316614080565b90808206151591040190565b62bfc9215f526004601cfd5b90613f47565b906001600160a01b0380821690831611613ff7575b6001600160a01b038216918215613f8d576124ca93613ff2926001600160a01b0380821693909103169060601b600160601b600160e01b0316613e4b565b613274565b90613fb4565b80156102e0577f07060605060205000602030205040001060502050303040105050304000000006f8421084210842108cc6318c6db6d54be826001600160801b031060071b83811c6001600160401b031060061b1783811c63ffffffff1060051b1783811c61ffff1060041b1783811c60ff1060031b1792831c1c601f161a1790565b92919061408e828286613e4b565b93821561327e570961409c57565b906001019081156102e057565b919081156140fe576001600160a01b03909216918183029160609190911b600160601b600160e01b0316908204831482821116156140f1576124ca9261383092820391614080565b63f5c787f15f526004601cfd5b505090565b919081156140fe5760601b600160601b600160e01b0316916001600160a01b031690808202826141338383613274565b14614160575b5061414761414c9284613274565b612161565b80820491061515016001600160a01b031690565b8301838110614139576001600160a01b039361417e93919250614080565b1690565b6001600160a01b038116919082036121db5756fe27e098c505d44ec3574004bca052aabf76bd35004c182099d8c575fb238593b91b3d7edb2e9c0b0e7c525b20aaaef0f5940d2ed71663c7d39266ecafac728859c090fc4683624cfc3884e9d8de5eca132f2d0ec062aff75d43c0465d5ceeab237d4b3164c6e45b97e7d87b7125a44c5828d005af88f9d751cfd78729c5d99a0ba2646970667358221220fc88a0d667fb7cba01eae09611561013be30e3a3dde1b13146f6afc6b96c33a464736f6c634300081a0033","linkReferences":{}},"methodIdentifiers":{"allowance(address,address,uint256)":"598af9e7","approve(address,uint256,uint256)":"426a8493","balanceOf(address,uint256)":"00fdd58e","burn(address,uint256,uint256)":"f5298aca","clear(address,uint256)":"80f0b44c","collectProtocolFees(address,address,uint256)":"8161b874","donate((address,address,uint24,int24,address),uint256,uint256,bytes)":"234266d7","extsload(bytes32)":"1e2eaeaf","extsload(bytes32,uint256)":"35fd631a","extsload(bytes32[])":"dbd035ff","exttload(bytes32)":"f135baaa","exttload(bytes32[])":"9bf6645f","initialize((address,address,uint24,int24,address),uint160)":"6276cbbe","isOperator(address,address)":"b6363cf2","mint(address,uint256,uint256)":"156e29f6","modifyLiquidity((address,address,uint24,int24,address),(int24,int24,int256,bytes32),bytes)":"5a6bcfda","owner()":"8da5cb5b","protocolFeeController()":"f02de3b2","protocolFeesAccrued(address)":"97e8cd4e","setOperator(address,bool)":"558a7297","setProtocolFee((address,address,uint24,int24,address),uint24)":"7e87ce7d","setProtocolFeeController(address)":"2d771389","settle()":"11da60b4","settleFor(address)":"3dd45adb","supportsInterface(bytes4)":"01ffc9a7","swap((address,address,uint24,int24,address),(bool,int256,uint160),bytes)":"f3cd914c","sync(address)":"a5841194","take(address,address,uint256)":"0b0d9c09","transfer(address,uint256,uint256)":"095bcdb6","transferFrom(address,address,uint256,uint256)":"fe99049a","transferOwnership(address)":"f2fde38b","unlock(bytes)":"48c89491","updateDynamicLPFee((address,address,uint24,int24,address),uint24)":"52759651"},"id":54}