{"abi":[{"type":"constructor","inputs":[{"name":"_permit2","type":"address","internalType":"contract IAllowanceTransfer"}],"stateMutability":"nonpayable"},{"type":"function","name":"permit","inputs":[{"name":"owner","type":"address","internalType":"address"},{"name":"permitSingle","type":"tuple","internalType":"struct IAllowanceTransfer.PermitSingle","components":[{"name":"details","type":"tuple","internalType":"struct IAllowanceTransfer.PermitDetails","components":[{"name":"token","type":"address","internalType":"address"},{"name":"amount","type":"uint160","internalType":"uint160"},{"name":"expiration","type":"uint48","internalType":"uint48"},{"name":"nonce","type":"uint48","internalType":"uint48"}]},{"name":"spender","type":"address","internalType":"address"},{"name":"sigDeadline","type":"uint256","internalType":"uint256"}]},{"name":"signature","type":"bytes","internalType":"bytes"}],"outputs":[{"name":"err","type":"bytes","internalType":"bytes"}],"stateMutability":"payable"},{"type":"function","name":"permit2","inputs":[],"outputs":[{"name":"","type":"address","internalType":"contract IAllowanceTransfer"}],"stateMutability":"view"},{"type":"function","name":"permitBatch","inputs":[{"name":"owner","type":"address","internalType":"address"},{"name":"_permitBatch","type":"tuple","internalType":"struct IAllowanceTransfer.PermitBatch","components":[{"name":"details","type":"tuple[]","internalType":"struct IAllowanceTransfer.PermitDetails[]","components":[{"name":"token","type":"address","internalType":"address"},{"name":"amount","type":"uint160","internalType":"uint160"},{"name":"expiration","type":"uint48","internalType":"uint48"},{"name":"nonce","type":"uint48","internalType":"uint48"}]},{"name":"spender","type":"address","internalType":"address"},{"name":"sigDeadline","type":"uint256","internalType":"uint256"}]},{"name":"signature","type":"bytes","internalType":"bytes"}],"outputs":[{"name":"err","type":"bytes","internalType":"bytes"}],"stateMutability":"payable"}],"bytecode":{"object":"0x60a034607357601f6105f938819003918201601f19168301916001600160401b03831184841017607757808492602094604052833981010312607357516001600160a01b038116810360735760805260405161056d908161008c82396080518181816085015281816101e501526102700152f35b5f80fd5b634e487b7160e01b5f52604160045260245ffdfe6080806040526004361015610012575f80fd5b5f905f3560e01c9081622a3e3a146102145750806312261ee7146101cf57632b67b5701461003e575f80fd5b6101003660031901126101bc5761005361040d565b60c03660231901126101cb5760e43567ffffffffffffffff81116101c75761007f903690600401610437565b606093917f00000000000000000000000000000000000000000000000000000000000000006001600160a01b031691823b156101c3576040516302b67b5760e41b81526001600160a01b03958616600482015294602435908116908190036101bf5760248601526044356001600160a01b038116908190036101bf57604486015260643565ffffffffffff81168091036101bf57606486015260843565ffffffffffff81168091036101bf57608486015260a4356001600160a01b038116908190036101bf5784866101718195839795839560a485015260c43560c485015261010060e48501526101048401916104d8565b03925af191826101a7575b505061019e575061019a61018e6104f8565b60405191829182610465565b0390f35b61019a9061018e565b6101b282809261048f565b6101bc578061017c565b80fd5b8480fd5b8380fd5b8280fd5b5080fd5b50346101bc57806003193601126101bc576040517f00000000000000000000000000000000000000000000000000000000000000006001600160a01b03168152602090f35b60603660031901126104095761022861040d565b906024359167ffffffffffffffff83116104095782360360606003198201126104095760443567ffffffffffffffff81116104095761026b903690600401610437565b6060957f00000000000000000000000000000000000000000000000000000000000000006001600160a01b031694919291853b1561040957632a2d80d160e01b87526001600160a01b03166004808801919091526024870188905260c48701949082013590602219018112156104095781016024600482013591019467ffffffffffffffff8211610409578160071b360386136104095760648801899052819052869460e48601949392915f5b81811061038d575050506103615f9694869488946044879560018060a01b0361034360248301610423565b166084880152013560a48601528483036003190160448601526104d8565b03925af1908161037d575b5061019e575061019a61018e6104f8565b5f6103879161048f565b5f61036c565b9196509394929391926001600160a01b036103a788610423565b16815260208701356001600160a01b03811691908290036104095760808165ffffffffffff6103f38e826103e660408f60019a60208a9b0152016104c5565b1660408501528c016104c5565b168d820152019701910191889695949392610318565b5f80fd5b600435906001600160a01b038216820361040957565b35906001600160a01b038216820361040957565b9181601f840112156104095782359167ffffffffffffffff8311610409576020838186019501011161040957565b602060409281835280519182918282860152018484015e5f828201840152601f01601f1916010190565b90601f8019910116810190811067ffffffffffffffff8211176104b157604052565b634e487b7160e01b5f52604160045260245ffd5b359065ffffffffffff8216820361040957565b908060209392818452848401375f828201840152601f01601f1916010190565b3d15610532573d9067ffffffffffffffff82116104b15760405191610527601f8201601f19166020018461048f565b82523d5f602084013e565b60609056fea26469706673582212201825c378c1f990130bf016f4f1eade4113d6f88966bdbf7c1de71c000d92d4a564736f6c634300081a0033","linkReferences":{}},"methodIdentifiers":{"permit(address,((address,uint160,uint48,uint48),address,uint256),bytes)":"2b67b570","permit2()":"12261ee7","permitBatch(address,((address,uint160,uint48,uint48)[],address,uint256),bytes)":"002a3e3a"},"id":108}